:100000000C94B3020C94FA020C94FA020C94FA02C7
:100010000C94FA020C94FA020C94FA020C94FA0270
:100020000C94FA020C94FA020C94C02C0C94922DAD
:100030000C94DF240C94FA020C94FA020C94FA0249
:100040000C94FA020C94FA020C94FA020C94FA0240
:100050000C94FA020C9454250C94FA020C94FA02B3
:100060000C94FA020C94FA020C94FA020C94FA0220
:100070000C94FA020C94FA020C94FA020C94FA0210
:100080000C94FA020C94FA020C94FA020C94FA0200
:100090000C94FA020C94FA020C94FA020C94FA02F0
:1000A0000C94FA020C94FA020C94FA024C115511B9
:1000B0005A115F11641169116E11731178117D115C
:1000C000821187118C11911196119B11A011A5110C
:1000D000AA11AF11B411B911BE11C3114B154E15B0
:1000E00053155A155F15641569156E157315781536
:1000F0007D1582158415861588158E158E158E151D
:100100008E158E15EB1AEB1A1D1B1D1B6A1B881B07
:100110009C1C9C1C931B2C1C3D1C3D1C3C1D3C1D15
:100120004E1D4E1D451D4E1D4E1D4E1D3C1D3C1DA4
:100130004A1D4E1D4E1D4A1DFF2D262E1E2F262EFA
:100140001E2F722E952E1E2FEC2EFB2E165C1E00DF
:100150001F0020002100220023002400250026008B
:1001600027002D002E002A002B0014001A00080082
:10017000150017001C0018000C00120013002F00BF
:1001800030003100396104001600070009000A0040
:100190000B000D000E000F0033003400000028009B
:1001A000E1001D001B0006001900050011001000F1
:1001B000360037003872520000000151E000E300C1
:1001C000E200000000002C0000000000E600E40057
:1001D0005000510000004F0035003A003B003C0049
:1001E0003D003E003F00400041004200430044000B
:1001F00045004C0001000100010001000100010068
:1002000001000100010001004600010001000100A1
:1002100001000100010001000100010001000100D6
:1002200001000100010001000000010001000100C7
:1002300001000100010001000100010001000100B6
:1002400001004B000000010001000100010000005E
:100250000000010000000000010002514A004E00B1
:1002600000004D0035003A003B003C003D003E00E0
:100270003F004000410042004300440045000100AF
:100280000100BF5CC05CBB5CBE5CC25CC35CC55CA7
:10029000C75CC95CCB5C01000100145C010001007B
:1002A0000100BC5CBD5C0100C45CC65CC85CCA5C8F
:1002B000CC5C010000000100010001000100010010
:1002C0000100010001000100010001000100010026
:1002D0000000010001000100010000000000010019
:1002E00000000000010001004A00010000000100C0
:1002F00000010101010101010101020202020202E9
:1003000002020203030303030303030404040404BB
:100310000404050505050506060606060707070782
:100320000708080808090909090A0A0A0B0B0B0C37
:100330000C0C0D0D0D0E0E0E0F0F0F1010111111D4
:100340001212131314141515161617171818191955
:100350001A1A1B1B1C1D1D1E1E1F202021222223BA
:100360002424252626272829292A2B2C2D2D2E2FFB
:1003700030313232333435363738393A3B3C3D3E12
:100380003F404142434445464748494A4C4D4E4F01
:1003900050515354555658595A5B5D5E5F616264C3
:1003A000656668696B6C6D6F7072737577787A7B50
:1003B0007D7E8082838587888A8C8E8F91939596A7
:1003C000989A9C9EA0A2A3A5A7A9ABADAFB1B3B5C7
:1003D000B7BABCBEC0C2C4C6C9CBCDCFD1D4D6D8A3
:1003E000DBDDDFE2E4E7E9EBEEF0F3F5F8FAFDFF41
:1003F000040330000000100344005A0036003000AF
:1004000052004700420000000E0344005A0054000E
:1004100045004300480000000403090409023B00B2
:10042000020100A0FA0904000001030101000921F2
:10043000110100012240000705810308000A090498
:100440000100010300000009211101000122BC008C
:100450000705820320000A12011001000000085A5B
:1004600044211102000102030105010902A10185D5
:10047000020901A1000509190129051500250195A9
:100480000575018102950175038101050109300996
:10049000311581257F95027508810609381581255A
:1004A0007F950175088106050C0A38021581257FA4
:1004B000950175088106C0C005010980A101850369
:1004C00019012AB700150126B700950175108100A2
:1004D000C0050C0901A101850419012AA00215011A
:1004E00026A002950175108100C005010906A10131
:1004F0008505050719E029E715002501950875010F
:1005000081020507190029EF1500250195F07501F5
:1005100081020508190129059505750191029501CA
:1005200075039101C005010906A101050719E0291C
:10053000E71500250195087501810295017508816F
:10054000010507190029FF150026FF00950675080B
:10055000810005081901290595057501910295018C
:1005600075039101C00011241FBECFEFDAE0DEBF9A
:10057000CDBF04B603FE27C08091170790911807DE
:10058000A0911907B0911A078730904BA740B04B44
:10059000D1F41092170710921807109219071092B1
:1005A0001A0714BE84B7877F84BF0FB6F894A89546
:1005B00080916000886180936000109260000FBE9F
:1005C000E0E0F8E3099513E0A0E0B1E0E8E3F1E64C
:1005D00002C005900D92A63AB107D9F727E0A6EA26
:1005E000B3E001C01D92A731B207E1F70E94FE29D6
:1005F0000C949A300C94000081E00E9447120C94F5
:10060000A52480E00E9447120C948B240E949F181E
:1006100081FF07C02FEF4FEF6FEF88E290E00C945F
:10062000A30A089581E0089581E008950C941403CD
:1006300008950C9418031F93CF93DF9300D000D03C
:100640001F92CDB7DEB749835A836B83309166041E
:1006500089819A81311114C0662359F0222349F00F
:100660000E94FB21182F682F89819A810E94A42162
:1006700003C00E94CF21182F69817A81812F04C085
:100680000E94FB2169817A810F900F900F900F904B
:100690000F90DF91CF911F910C94DB03FC01262F6B
:1006A000408151816281738184810C941B03CF93BB
:1006B000DF93EC0160E00E944E03BE01DF91CF9119
:1006C0000C9419030E94A0250E942623811102C0C8
:1006D0000E94C6230E9419120C94DC050E94B310DC
:1006E0000C94D80508950C94720381E008950C943D
:1006F0007503CF93C82F0E9473038C2F0E9477033A
:10070000CF91089508950E942A1D0E9482032FEF21
:1007100084E39CE0215080409040E1F700C000005D
:100720000C947A250F931F93CF93DF93EC0161E034
:100730000E944E038C01BE010E9410108823A9F173
:10074000BE01C8010E941603882379F1BE01C801C9
:100750000E942C16882349F1BE01C8010E947E1612
:10076000882319F1BE01C8010E94A9178823E9F066
:10077000BE01C8010E9434158823B9F08A818823FC
:1007800069F001158CE5180731F00E3D1C4531F478
:100790000E94C6230AC00E94830307C0CE01DF91D6
:1007A000CF911F910F910C94120380E0DF91CF91B4
:1007B0001F910F91089526E4829FC0011124FC012E
:1007C0002EE0729FE00DF11D1124E60FF11DEE0FDA
:1007D000FF1FE45BFE4F859194910895CF93DF93C3
:1007E0000E94DB030E94F004EC01811521E59207D1
:1007F00008F043C0811540E5940708F08AC0883EA0
:10080000910520F5803E910508F0E6C0883A9105F3
:1008100070F4853A910508F074C08130910509F4AF
:10082000DBC008F4D7C0049708F0D6C0D3C08F3B14
:10083000910508F0CFC0C85AD0E0CC0FDD1FCF5DC6
:10084000DC4F0990D881C02DD464C6C0C11580E2A8
:10085000D80758F4C11521E0D20708F0BDC0C03F49
:10086000D10508F4B7C0D065B7C0C11540E4D407BE
:1008700008F4B0C0DF70D06AAFC0C11585E5D807F5
:10088000A0F4C11524E5D20708F08AC0C11543E5DC
:10089000D40708F06FC0C11582E5D80708F054C02E
:1008A000DC2FCC27C16FD06A97C0C11529E5D207CC
:1008B000A0F4C11548E5D40708F077C0C11586E556
:1008C000D80708F087C08C2F0E9484058F71C82F2D
:1008D000D0E0DC2FCC27D0627FC0C1152AE5D2073B
:1008E00008F468C0CE0190568115904208F072C09D
:1008F0008D2F8F710E948405DD27D0628F71D82BD8
:100900006BC0C55AD0E0C15BDC4FC881D0E0D06479
:1009100063C074E0969587957A95E1F783709C2F74
:10092000937021E030E002C0220F331F9A95E2F766
:100930003C68382BCF70C695C69580E2C89FE00111
:100940001124C22BD32B48C0CE018370992721E0FC
:1009500030E002C0220F331F8A95E2F78C2F869574
:10096000869540E2849FC0011124E901C82BD92B50
:10097000DC6832C0CE018370992721E030E002C0EC
:10098000220F331F8A95E2F78C2F8695869540E2D9
:10099000849FC0011124E901C82BD92BDA681CC03F
:1009A000DC2FCC27C46FD06A17C0DC2FCC27C06FD8
:1009B000D06A12C08C2F8F700E94840594E0D69567
:1009C000C7959A95E1F7CF70D0E0DC2FCC27D0699E
:1009D000C82B02C0C0E0D0E0CE01DF91CF910895D6
:1009E0008238910569F1B0F48133910509F46DC045
:1009F00048F48932910509F463C08A32910509F4FB
:100A000069C008958533910509F455C0893391056E
:100A1000B9F00895833E910569F138F4803E91055F
:100A2000B1F0823E910509F10895863E9105A9F144
:100A3000873E9105B9F1843E910509F064C023C059
:100A40002091080720FD4FC021FD4DC008958091E1
:100A5000080780FD44C08091090780FF44C0809151
:100A6000080784FD42C083EE4DC08091080782FFD5
:100A700038C0F5CF8091080782FD33C08091090707
:100A800080FD31C0ECCF8091090781FF32C0809199
:100A9000080784FD2AC087EE35C08091080783FFD0
:100AA00026C0F5CF8091080783FD21C080910907FA
:100AB00081FD1FC0ECCF8091080785FD1CC01DC0C3
:100AC0008091080785FD19C016C08091080786FD32
:100AD00016C017C08091080786FD13C010C089E3B7
:100AE00011C082EE0FC080EE0DC080E00BC086EE1C
:100AF00009C084EE07C089E205C085E303C08AE22D
:100B000001C081E390E008959091080792FF0DC025
:100B1000282F2871283019F4877F846006C0282F79
:100B20002471243011F48B7F886093FF0DC0282F2F
:100B30002871283119F4877E846106C0282F24711A
:100B4000243111F48B7E88612091090720FF0DC0AC
:100B5000382F3871383019F4877F816006C0382FFC
:100B60003171313011F48E7F886021FF0DC0282F44
:100B70002871283119F4877E816106C0282F2171E0
:100B8000213111F48E7E886194FD877E0895E82FCF
:100B9000F0E0EE0FFF1FEC5CFA4F80819181089529
:100BA000089580EA8A95F1F7089508950C94D50583
:100BB0000C94D6050C94D5050C94DA05CF93DF93ED
:100BC000A0E6B3E045E653E061E070E08D91E82FE8
:100BD000E295EF70F0E021A18F70EB0102C0CC0F25
:100BE000DD1F8A95E2F7CE019C2F9095922391A369
:100BF00092A1892B82A34A175B0741F7A2E5B3E0D4
:100C000040E653E061E070E08D91E82FE295EF70EF
:100C1000F0E021A18F70EB0102C0CC0FDD1F8A959F
:100C2000E2F7CE019C2F9095922391A392A1892B5C
:100C300082A34A175B0741F7EAE2F5E0A4E3B5E0D7
:100C400084E395E0119211921D921D928E179F07D9
:100C5000C9F785E00E94BD06DF91CF910C94620335
:100C60006F927F928F929F92AF92BF92CF92DF92BC
:100C7000EF92FF920F931F93CF93DF9380E6C82EDE
:100C800083E0D82E0AE215E094E3A92E95E0B92E70
:100C9000712C88248394912CF60181916F01C82FC7
:100CA000C295CF70D0E099A18F70740101C0EE0C95
:100CB0008A95EAF7892F8E2989A38AA16E2C6094E0
:100CC00086218AA30E94D105E2E5F3E040E050E0EE
:100CD00020E030E06191A62FA295AF70B0E0909631
:100CE0008C9190E06F7002C0959587956A95E2F7B8
:100CF00080FD08C0C401042E02C0880F991F0A9409
:100D0000E2F702C080E090E0282B392B4F5F5F4F65
:100D10004E305105F9F689A1682269A28AA1E82A14
:100D2000EAA2F801808191812817390721F03183E7
:100D3000208381E001C080E0782A0E5F1F4FA0165B
:100D4000B10609F0A9CF272D45E064E375E08AE2FA
:100D500095E00E94BE060E946E03872DDF91CF9121
:100D60001F910F91FF90EF90DF90CF90BF90AF90C9
:100D70009F908F907F906F9008950895FF920F93AA
:100D80001F93CF93DF93F82E092F162FD72FC42F41
:100D9000222349F081E08093A8030E9411259093BB
:100DA000A7038093A6038091A8038823D9F080919C
:100DB000A6039091A7030E942925049798F0EF2D90
:100DC000F02FA12FBD2F80E090E04C2F50E0841732
:100DD000950734F4219131912D933D930196F7CFEE
:100DE0001092A803DF91CF911F910F91FF9008956A
:100DF000EF92FF920F931F93CF93DF938B01682F96
:100E000011110AC0442329F0E82FF0E0E051FD4F12
:100E10006491762F862F75C0212F30E0E82FF0E007
:100E2000442321F0E051FD4FE491F0E046E0049FBF
:100E3000C0011124CFEFD0E0BE010E94522F4BEA37
:100E40004603C001479F900D1124800F911D800F14
:100E5000911D982F990F890FAE01421B530B4E9F86
:100E6000D0014F9FB00D5E9FB00D11249B2F189F96
:100E7000A0011124452F55278E01041B150B0E9F31
:100E8000A0010F9F500D1E9F500D11247E01E81AE6
:100E9000F108E29E8001E39E100DF29E100D1124D8
:100EA000212F3327C21BD30BCE9F9001CF9F300D34
:100EB000DE9F300D112462307105A9F048F46115F0
:100EC000710569F061307105C9F48B2F752F0DC064
:100ED0006430710581F058F06630710579F47E2F29
:100EE0008B2F932F0DC0832F7B2F9E2F09C08E2F0A
:100EF0007B2F952F05C08E2F732F02C07E2F852F3D
:100F0000692FDF91CF911F910F91FF90EF9008957E
:100F100041E00E94F806089520E030E0869F212DF0
:100F2000969F200D311D1124C9010895BC01823006
:100F3000910508F40895613E8EE1780748F49B011D
:100F400095E0369527959A95E1F748E0420F01C064
:100F50004FEF91E0242F30E0290F311D3595279573
:100F6000229FF001239FF00DF00D11246E177F07D3
:100F700018F44FEF420F04C02F3F39F091E0920F69
:100F8000491740F78FEF890F08958FEF0895482F85
:100F9000982F46FD9095E92FEF739F7046FD9F5F58
:100FA000E295EF70EE0FF0E0EB59FC4F2181299FA5
:100FB000802D212D112482958F702295207F822BE8
:100FC0003081982F930F892F47FD81958058089580
:100FD000E42FF0E0EE0FFF1FE65BFE4F408134EEA2
:100FE000439F412D1124E82FF0E050E0445E5F4F15
:100FF000DA01A21BB1099D01B7FF03C0319521950C
:10100000310993E0220F331F9A95E1F7AF01421B9C
:10101000530B9A0157FF02C020E030E0582F259F64
:10102000212D1124822F0895622F0895E42FF0E0DE
:10103000EE0FFF1FE65BFE4F6081621B0895E42FF9
:10104000F0E0EE0FFF1FE55BFE4F6081621B08952D
:10105000A22F50E0FA01EE0FFF1FE55BFE4F9081DB
:10106000905297FD9195440F551FFA01E65BFE4F94
:101070003081232F30E02A1B3109290F311D97FDC4
:101080003A95620F0895EF920F931F9393E0099F93
:1010900080011124159507956E2D600F1F910F91FA
:1010A000EF9008950F93CF93DF93D72FC82F47FD6D
:1010B0004195E8E3F0E0CF01841B910947FD93954A
:1010C000889FB001899F700D700D1124229FC0016F
:1010D000239F900D900D1124860F971F0E94960755
:1010E000682F660F860F682F600F7D2F8C2FDF9182
:1010F000CF910F9108950F931F93522F10E0F80195
:10110000EE0FFF1FE55BFE4FE081F0E0B0979F011F
:101110005203D001539FB00D1124000F111FF8018D
:10112000E65BFE4F008110E000571109400390017B
:10113000419F300D11242A0F3B1F37FF02C0215859
:101140003F4F220F232F221F330B620F1F910F914E
:1011500008950F931F93522F10E0F801EE0FFF1F19
:10116000E55BFE4FE081F0E0B097EE0FFF1F9F01BF
:101170005203D001539FB00D1124000F111FF8012D
:10118000E65BFE4F008110E000571109000F111FB0
:1011900040039001419F300D11242A0F3B1F37FF60
:1011A00002C021583F4F220F232F221F330B620F03
:1011B0001F910F9108950F931F9310E0F801EE0F08
:1011C000FF1FE65BFE4F9081905797FD9195000FB2
:1011D000111FF801E55BFE4FE081F0E0B097DF0101
:1011E000AA0FBB1F8D010E0F1F1F2003D001219FCF
:1011F000B00D1124E8E3F0E0E91BF10997FDF39548
:101200009F01220F331F89010E0F1F1F4003900102
:10121000419F300D11242A0F3B1F37FF02C0215878
:101220003F4F220F232F221F330B620F1F910F916D
:1012300008954095282F429F412D1124842F089511
:1012400022E8241B08F420E0620F0895FC019B01B2
:10125000009721F477FF2BC080E80895AC0197FF39
:1012600004C044275527481B590BB901640F751F4B
:1012700037FD0CC0241B350BC901A5E0880F991F51
:10128000AA95E1F70E94662F80E20CC0CB0165E0D1
:10129000880F991F6A95E1F7BA01621B730B0E94D0
:1012A000662F80E6861BF7FF03C08195089580E0D6
:1012B0000895FF920F931F93CF93DF93F62ED72FAE
:1012C000182FC901C12FC01BBA010E942609982FEF
:1012D000990F890FC81B2C2F219F212D1124822F9C
:1012E0006F2D7D2FDF91CF911F910F91FF9008956A
:1012F000EF920F931F93CF93DF93D62FC72F182F03
:10130000C9010E19010FBA010E942609081B202FDE
:10131000219F212D1124822F6D2F7C2FDF91CF91C2
:101320001F910F91EF9008950F93CF93DF93D72FD5
:10133000C82FC901BA010E942609682F600F7D2FAE
:101340008C2FDF91CF910F910895EF920F93CF9350
:10135000DF93D72FC82FC9010E19BA010E942609A1
:10136000602F681B7D2F8C2FDF91CF910F91EF9015
:1013700008951F93CF93DF93FC01618140815FEF5C
:10138000560FA1E0A60F9FEF940F81E0840FC62FA8
:10139000D0E0941780F42EE02C9FF0012D9FF00DEB
:1013A0001124EA52FC4FE90FF11D208130E1230F97
:1013B00008F42FEF2083242F30E07EE07C9FF001A3
:1013C0007D9FF00D1124EA52FC4FEF01C20FD31F95
:1013D000788110E2710F08F47FEF78838E3040F44B
:1013E000E80FF11D708110E1710F08F47FEF708339
:1013F000A53070F5B0E0941780F47EE07A9FF0019C
:101400007B9FF00D1124EA52FC4FE90FF11D708112
:101410001DE0710F08F47FEF70837EE07A9FF0018A
:101420007B9FF00D1124EA52FC4FDF01A20FB31F86
:101430007C9110E1710F08F47FEF7C938E3040F4C3
:10144000E80FF11D70811DE0710F08F47FEF7083CC
:10145000561778F5652F70E0941780F44EE0469F9C
:10146000F001479FF00D1124EA52FC4FE90FF11DE6
:1014700040815DE0450F08F44FEF40839EE0969F6A
:10148000F001979FF00D1124EA52FC4FDF01A20FEB
:10149000B31F2C9130E1230F08F42FEF2C938E30E3
:1014A00040F4E80FF11D20813DE0230F08F42FEFF9
:1014B0002083DF91CF911F91089545E050E06CE1CA
:1014C00070E08EE395E00C94263045E050E06CE14E
:1014D00070E08EE395E00C944430EEE3F5E085E2B5
:1014E00080838091220290912302A0912402818323
:1014F0009283A3838FE784830C94650A80E0089528
:101500000F931F93CF93DF93C82FD62F8A010E948A
:101510007E0A9EE0C99FF0011124EC5FFE4FED0FA3
:10152000F11D90819F3F29F0F801E80FF11D908394
:101530008F5FDF91CF911F910F910895E091730319
:10154000F09174030994E0916F03F0917003099492
:101550004F925F926F927F928F929F92AF92BF92C3
:10156000CF92DF92EF920F931F93CF93DF932C01D3
:101570003B01FC01C0818DE0C89FC02D1124DDE03E
:10158000DC0FD03408F0DFE360914205669580916E
:101590004305909144050E948C07182FCD1708F041
:1015A00044C08C2E912CF401E853FE4F9081F2013F
:1015B00081818923C1F1F401EE0FFF1FE65BFE4F2D
:1015C000C080D12CF0E7CF1AD108F401EE0FFF1F35
:1015D000E55BFE4FA080B12C80E2A81AB108CC9C3C
:1015E0009001CD9C300D300D1124AA9CC001AB9C04
:1015F000900D900D1124820F931F0E949607082FC3
:1016000060913F057091400580914105E12E950163
:10161000A601F30109950E948807462F282F672FFE
:10162000C4010E94A30ACF5FB9CF81E0DF3308F085
:1016300080E0DF91CF911F910F91EF90DF90CF90DD
:10164000BF90AF909F908F907F906F905F904F90E2
:10165000089568E779E00C94A80A63E478E00C94B4
:10166000A80A65EA79E00C94A80AAF92BF92CF92DB
:10167000DF92EF92FF920F931F93CF93DF936C0152
:101680005B01FC01C0818DE0C89FC02D1124DDE00D
:10169000DC0FD03408F0DFE360914205669580915D
:1016A0004305909144050E948C07182FCD1778F5BB
:1016B000EC2EF12CF701E853FE4F9081F601818169
:1016C000892319F1F701EE0FFF1FE55BFE4F208123
:1016D00030E020523109F701EE0FFF1FE65BFE4FAD
:1016E000408150E04057510960913F05709140059D
:1016F00080914105012FF50109950E948807462F29
:10170000282F672FC7010E94A30ACF5FCFCF81E0A8
:10171000DF3308F080E0DF91CF911F910F91FF90B0
:10172000EF90DF90CF90BF90AF90089569E579E09A
:101730000C94350B62E578E00C94350B64E979E0A4
:101740000C94350BBF92CF92DF92EF92FF920F93E2
:101750001F93CF93DF938C017B01FC01C0818DE04F
:10176000C89FC02D1124DDE0DC0FD03408F0DFE38A
:101770006091420566956695809143059091440578
:101780000E948C07B82ECD17F0F4CC2ED12CF60188
:10179000E853FE4F9081F8018181892391F0609197
:1017A0003F0570914005809141052B2D4C2FF7018D
:1017B00009950E948807462F282F672FC6010E948F
:1017C000A30ACF5FE0CF81E0DF3308F080E0DF9154
:1017D000CF911F910F91FF90EF90DF90CF90BF902E
:1017E000089568EE77E00C94A20B64E178E00C9425
:1017F000A20B66E178E00C94A20B6FE178E00C9408
:10180000A20B68E278E00C94A20B7F928F929F92D9
:10181000AF92BF92CF92DF92EF92FF920F931F93FE
:10182000CF93DF936C015B01FC01C0818DE0C89F09
:10183000C02D1124DDE0DC0FD03408F0DFE360912F
:1018400042056695669580914305909144050E94F6
:101850008C07182F80E4810F0E94C70790E8F92EAB
:10186000F80E812F0E94C70720E8722E780ECD1740
:1018700000F58C2E912CF401E853FE4F9081F60177
:1018800081818923A1F060913F057091400580918D
:101890004105E12E0C2F272D4F2DF50109950E94B2
:1018A0008807462F282F672FC4010E94A30ACF5F05
:1018B000DECF81E0DF3308F080E0DF91CF911F9130
:1018C0000F91FF90EF90DF90CF90BF90AF909F90DF
:1018D0008F907F9008956BE778E00C94050C69EA8F
:1018E00078E00C94050C6BED78E00C94050CAF924D
:1018F000BF92CF92DF92EF92FF920F931F93CF93FD
:10190000DF937C015B01FC01C0818DE0C89FC02D8D
:101910001124DDE0DC0FD03408F0DFE32091420534
:1019200030E040E050E06FEF7FEF80E090E00E9419
:101930007A2F8901CD17E8F5CC2ED12CF601E8538A
:10194000FE4F9081F7018181892389F190914705AC
:10195000915097FD15C0292F092E000C330BF9016A
:10196000E95BFA4F8189C813F3CF220F331FF901C6
:10197000E95BFA4F218D328D2017310748F701C0FE
:10198000980160914205C9010E948C07AC016091E9
:101990003F057091400580914105F50109950E9430
:1019A0008807462F282F672FC6010E94A30ACF5F02
:1019B000C1CF81E0DF3308F080E0DF91CF911F914C
:1019C0000F91FF90EF90DF90CF90BF90AF90089570
:1019D00069E179E00C94770C60E279E00C94770C83
:1019E000DF92EF92FF920F931F93CF93DF938C01BF
:1019F000DC018C91CDE08C9FC02D1124DDE0DC0F4B
:101A0000D03408F0DFE360913F057091400580918C
:101A100041050E948807F62EE72ED82ECD1798F4A0
:101A2000EC2FF0E0DF01A853BE4F8C91D801119646
:101A30009C91982331F02D2D4F2D6E2DCF010E94BA
:101A4000A30ACF5FEBCF81E0DF3308F080E0DF91C6
:101A5000CF911F910F91FF90EF90DF900895AF927B
:101A6000BF92CF92DF92EF92FF920F931F93CF938B
:101A7000DF938C01FC01C0818DE0C89FC02D112433
:101A8000DDE0DC0FD03408F0DFE3E0904005F090BB
:101A90004105D0903F056D2D7E2D8F2D0E9488072A
:101AA000C62EB72EA82E609142056D0D7E2D8F2D6E
:101AB0000E948807F62EE72ED82ECD17B8F48C2F6B
:101AC00090E0FC01E853FE4F3081F801218123238F
:101AD00059F030FF04C02D2D4F2D6E2D03C02A2D3F
:101AE0004C2D6B2D0E94A30ACF5FE7CF81E0DF333F
:101AF00008F080E0DF91CF911F910F91FF90EF9060
:101B0000DF90CF90BF90AF900895BF92CF92DF92B9
:101B1000EF92FF920F931F93CF93DF937C01FC0111
:101B2000C0818DE0C89FC02D1124DDE0DC0FD034D2
:101B300008F0DFE3C0904005B090410520914205D8
:101B400030E4D32E3D2D329F312D1124D32ECD17CD
:101B500038F50C2F10E0F801E853FE4F9081F701A3
:101B600081818923D9F0F801EE0FFF1FE65BFE4F5C
:101B70006081D69EB001112495E0759567959A9580
:101B8000E1F780913F05680F7C2D8B2D0E9488071F
:101B9000462F282F672FC8010E94A30ACF5FD7CFF7
:101BA00081E0DF3308F080E0DF91CF911F910F914A
:101BB000FF90EF90DF90CF90BF900895DF92EF926B
:101BC000FF920F931F93CF93DF938C01DC01CC9195
:101BD0008DE0C89FC02D1124DDE0DC0FD03408F06B
:101BE000DFE3E0903F05F0904005D0904105609123
:101BF00042056695669566958091430590914405EA
:101C00000E948C070E94C707805887FD8195880F26
:101C1000282F3D2D239F212D1124822FB7010E94B3
:101C20008807F62EE72ED82ECD1798F4EC2FF0E08B
:101C3000DF01A853BE4F8C91D80111969C91982337
:101C400031F02D2D4F2D6E2DCF010E94A30ACF5FB5
:101C5000EBCF81E0DF3308F080E0DF91CF911F917F
:101C60000F91FF90EF90DF900895DF92EF92FF9237
:101C70000F931F93CF93DF93EC01FC01E853FE4FCA
:101C80009081692381F1D090400500914105109128
:101C90003F05E12EF12C0E940D30282FC7018C54F6
:101CA0009F4F68E671E00E94662F8E199F0997FD8D
:101CB000039695958795959587952370612F289F15
:101CC000600D11247D2D802F0E948807462F282F1C
:101CD000672FCE01DF91CF911F910F91FF90EF9071
:101CE000DF900C94A30ADF91CF911F910F91FF9089
:101CF000EF90DF900895CF92DF92FF920F931F93A2
:101D0000CF93DF938C01FC01C281C1111DC0609192
:101D1000420520E1620F08F46FEF80914305909136
:101D200044050E948C076AE070E00E94522F892BC4
:101D300059F50E940D306FE370E00E94662FF801A4
:101D400061810E94350E20C0FC018081CDE08C9F16
:101D5000C02D11249DE0F92EFC0EFFE3FF1510F4B9
:101D60008FE3F82ED0E0CF2CD12CCC15DD053CF440
:101D7000F8016181CE010E94350E2196F6CFC1E0B7
:101D8000FEE3FF1508F4C0E08C2FDF91CF911F9187
:101D90000F91FF90DF90CF9008951F93CF93DF9323
:101DA000FC01E853FE4F20816223A9F0EC010E9460
:101DB0000D30182F0E940D30612F782F8091410532
:101DC0000E948807462F282F672FCE01DF91CF91E1
:101DD0001F910C94A30ADF91CF911F910895CF9288
:101DE000DF92FF920F931F93CF93DF938C01FC013F
:101DF000C281C1111DC06091420520E1620F08F44B
:101E00006FEF80914305909144050E948C0765E037
:101E100070E00E94522F892B59F50E940D306FE31C
:101E200070E00E94662FF80161810E94CD0E20C0F3
:101E3000FC018081CDE08C9FC02D11249DE0F92E06
:101E4000FC0EFFE3FF1510F48FE3F82ED0E0CF2C4B
:101E5000D12CCC15DD053CF4F8016181CE010E9446
:101E6000CD0E2196F6CFC1E0FEE3FF1508F4C0E0E9
:101E70008C2FDF91CF911F910F91FF90DF90CF902A
:101E80000895E0917103F091720309942F923F92AB
:101E90004F925F926F927F928F929F92AF92BF927A
:101EA000CF92DF92EF92FF920F931F93CF93DF9326
:101EB000CDB7DEB72B970FB6F894DEBF0FBECDBF00
:101EC0003C01DC018C910DE0809F002D1124BDE0D0
:101ED000B00FB987B73410F0E6E4E987D301129662
:101EE0008C91882361F040E060E080E00E94410F27
:101EF00086E4E6EDF3E0DF011D928A95E9F710E054
:101F0000F985EF2FF0E0FB87EA878EE0482ECE01BF
:101F100001965C019AEA292E8A859B850817190784
:101F20000CF060C0C80165E070E00E94662F7B0184
:101F30004C01489EF001499EF00D1124EA52FC4FDD
:101F4000E60FF71F5080A5010E94800A382E650118
:101F50008C2D8A19831508F032C0D601EC91F0E07F
:101F6000E853FE4F9081F3018181892321F1252DD2
:101F700035E5231B08F420E0622D621B70914005BB
:101F8000222D352D230F08F42FEF3091410582E0EB
:101F9000289F200D11242E5F239F212D1124822F95
:101FA0000E948807462FD6019C91282F672F892FE2
:101FB00090E00E94A30ABFEFCB1ADB0AC9CF252D00
:101FC00031E0231B08F420E0489CC001499C900D9F
:101FD00011248A529C4FFC01EE0DFF1D20830F5FE0
:101FE0001F4F9ACF81E09985963408F080E02B96B8
:101FF0000FB6F894DEBF0FBECDBFDF91CF911F911A
:102000000F91FF90EF90DF90CF90BF90AF909F9097
:102010008F907F906F905F904F903F902F9008959A
:10202000AF92BF92CF92DF92EF92FF920F931F93E6
:10203000CF93DF93CDB7DEB728970FB6F894DEBF06
:102040000FBECDBF8B01FB018281882349F0AE0119
:102050004F5F5F4F608181810E94800AD82E01C04E
:10206000D12CC090A903ED2CF12CC7018C0D911D32
:10207000099764F188E090E05C01AE18BF08B701F1
:1020800066557C4FA5018AEA93E00E941D30B70196
:102090006E547C4FA50182EB93E00E941D30A50198
:1020A000440F551FB701660F771F6E537C4F82ECAC
:1020B00093E00E941D30B70166547C4FA5018AEB66
:1020C00093E00E941D30CA94C092A903F090A90326
:1020D000DE01119640E0842F8F0DD41609F190E0B7
:1020E0005D91252F30E0BC0167557C4FF901EE0F63
:1020F000FF1FE65BFE4FE080FB01E182220F331FF2
:10210000F901E55BFE4F2081FB012187518B880F90
:10211000991FFC01E755FC4F128E118E4F5FDBCFEC
:102120008093A90380913E058C7F843519F4C80102
:102130000E94B90981E028960FB6F894DEBF0FBE61
:10214000CDBFDF91CF911F910F91FF90EF90DF9066
:10215000CF90BF90AF90089508950C94AC100E945A
:10216000AD100C9406034F925F926F927F928F9204
:102170009F92AF92BF92CF92DF92EF92FF92CF9356
:10218000DF936091D2037091D3038091D403909137
:10219000D5030E9438256B017C010E941D254B014F
:1021A0005C016093D2037093D3038093D403909324
:1021B000D503A091A903E9EAF3E08A2F90E04FEF5D
:1021C0005FEF60E070E04C195D096E097F09A917A7
:1021D00099F0218D328D2901612C712C4415550502
:1021E0006605770510F4815004C02C0D3D1D328F1B
:1021F000218F9F5F3296EBCF8093A903D0911C046F
:10220000D11108C0C0913E058C2F837019F0C6957E
:10221000C69501C0C0E0809107028130E9F038F036
:10222000823009F4C7C0833009F4D1C0E1C01092F4
:1022300008028092430590924405A0924505B09211
:10224000460589E2E9EAF3E0A7E4B5E001900D92E2
:102250008A95E1F781E0B8C080910B02C8130DC0E8
:1022600020913E05237030E040910C0250E081E067
:102270002417350719F480E001C081E08170809354
:102280000A024C2F50E04831510508F081C0FA0194
:10229000EA5AFF4F0C94992F882309F479C040E043
:1022A00060E080E00E94410F73C088E092E00E94ED
:1022B000F00C6FC088E092E00E942F0D6AC088E0A9
:1022C00092E00E94850D65C088E092E00E94DE0DDC
:1022D00060C088E092E00E94F10B5BC088E092E071
:1022E0000E94960B56C088E092E00E94290B51C0D4
:1022F00088E092E00E94F50B4CC088E092E00E94DA
:10230000F90B47C088E092E00E94FD0B42C088E0D4
:1023100092E00E94010C3DC088E092E00E942D0BEB
:1023200038C088E092E00E949A0B33C088E092E0C7
:102330000E949E0B2EC088E092E00E94310B29C0C3
:1023400088E092E00E946B0C24C088E092E00E943A
:102350006F0C1FC088E092E00E94730C1AC088E0E6
:1023600092E00E947B0E15C088E092E00E94EF0E82
:1023700010C088E092E00E94460F0BC088E092E017
:102380000E94E80C06C088E092E00E94EC0C01C0BC
:1023900080E0909108029F5F90930802811128C00D
:1023A00082E08093070280910A02811121C0CC2330
:1023B00051F01EC0C0930B0280913E058370809344
:1023C0000C020E949E0A83E08093070211C0609174
:1023D00043057091440580914505909146050E9402
:1023E0003825603171058105910510F010920702C2
:1023F000D11110C0DF91CF91FF90EF90DF90CF907F
:10240000BF90AF909F908F907F906F905F904F9014
:102410000C94AF10DF91CF91FF90EF90DF90CF90B1
:10242000BF90AF909F908F907F906F905F904F90F4
:102430000895E0916D03F0916E03099510924705A0
:10244000E0E6F5E08FEF9FEF8193919325E0E03791
:10245000F207D1F71092A903E2ECF3E08FEF9FEFC0
:102460008193919323E0E23DF207D1F70E94262366
:10247000811104C00E94C6230E946D0A0E945D0A59
:1024800080913E058C7F11F40C946D0A0895CF93D2
:10249000C82F882329F040E060E080E00E94410FCF
:1024A000C0931C04CF91089520913E0591E092279E
:1024B00090933E051092070281110C94650A0895CD
:1024C00081E00C94541290913E05937091F081112B
:1024D00002C0946007C0883110F09C6503C0880F6B
:1024E000880F982B90933E051092070261110C946F
:1024F000650A089561E00C946312682F90913E057F
:10250000969596959F5F983110F4892F01C081E0D0
:102510000C94631281E00C947D12682F90913E051B
:1025200096959695915011F0892F01C087E10C94F2
:10253000631281E00C948D1290913E05937049F0E6
:1025400080933F05609340054093410521110C9411
:10255000650A0895AEE3B5E01196EC911197F0E0AD
:10256000282F13964C91139712966C91CF010896D1
:102570000C949C1281E00C94AA12AEE3B5E0119683
:10258000EC911197F0E0282F13964C911397129627
:102590006C91CF0108970C949C1281E00C94BD12B1
:1025A000EEE3F5E0628120E1620F08F46FEF9181C4
:1025B000282F4381892F90E00C949C1281E00C9489
:1025C000D012EEE3F5E0628120E1621B08F460E0E6
:1025D0009181282F4381892F90E00C949C1281E0F7
:1025E0000C94E112EEE3F5E0438120E1420F08F4A0
:1025F0004FEF9181282F6281892F90E00C949C12DB
:1026000081E00C94F212EEE3F5E0438120E1421BFD
:1026100008F440E09181282F6281892F90E00C948A
:102620009C1281E00C9403132091420530E1230FAA
:1026300008F42FEF2093420581110C94650A089548
:1026400081E00C9414132091420530E1231B08F41F
:1026500020E02093420581110C94650A089581E0E1
:102660000C94231360E080E50E94C01461E080E5D3
:102670000C94C014CF930E94DA1760E080E50E94AA
:102680009613C0E021E041E061E08C2F0E94241409
:10269000CF5FCF33B9F760E080E50E94F21461E0CC
:1026A00080E5CF910C94F2146093F0064093F1060C
:1026B00024E630E042E050E060EF76E0880F0E94D0
:1026C000671821E0892B09F020E0822F0895EF920E
:1026D000FF921F93CF93DF937B01182F110FC0E060
:1026E000D0E0C093F006D701AC0FBD1FE1EFF6E0DC
:1026F0008D91819387E0E130F807D1F724E630E04F
:1027000041E150E060EF76E0812F0E946718892B4D
:1027100031F46096C03CD10521F781E001C080E032
:10272000DF91CF911F91FF90EF9008951F93CF936A
:10273000DF93C82FD62F45EC6EEF0E94541340E074
:102740006DEF8C2F0E94541310E040E0612F8C2F0E
:102750000E9454131F5F1831C1F745EC6EEF8C2FA8
:102760000E94541341E06DEF8C2F0E94541310E02F
:1027700040E0612F8C2F0E9454131F5F103CC1F763
:1027800045EC6EEF8C2F0E94541343E06DEF8C2FBD
:102790000E9454134FEF61E08C2F0E94541380E489
:1027A000D89FA0011124416060E08C2F0E94541337
:1027B0008FE39CE90197F1F700C00000DF91CF9112
:1027C0001F9108958F33910520F5880F991F880F69
:1027D000991FFC01EB5DFD4F528133818081837035
:1027E0007181E82FF0E0A0EC8A9FC001112480598C
:1027F0009A4FDC01A70FB11D6C93DC01A50FB11D31
:102800004C93DC01A30FB11D2C93E15BFB4F81E0E6
:1028100080830895FF920F931F93CF93DF93182F18
:10282000062FF42EC0E0D0E02F2D402F612FCE01D7
:102830000E94E2132196CF33D105B1F7DF91CF91FA
:102840001F910F91FF900895CF93DF9334E0839F02
:10285000C0011124FC01EB5DFD4F8081837051812B
:102860009281C381A52FA695A695A695392F369559
:1028700036953695EC2FE695E695E6955770F92F47
:10288000F770C77090E0B0E0D8E1662391F0D89F70
:10289000B001D99F700D1124615E7B4FA60FB71F49
:1028A00061E070E001C0660F5A95EAF75C91652B14
:1028B00012C0D89FB001D99F700D1124615E7B4F6B
:1028C000A60FB71F61E070E001C0660F5A95EAF7E6
:1028D00060955C9165236C93632F70E038E1389FBD
:1028E000D001399FB00D1124A15EBB4FA60FB71FB9
:1028F000442349F041E050E001C0440FFA95EAF763
:102900003C91432B09C041E050E001C0440FFA95CF
:10291000EAF740953C9143234C934E2F50E02223FD
:1029200099F028E1289FF001299FF00D1124E15E24
:10293000FB4FE40FF51F21E030E001C0220FCA95E4
:10294000EAF73081232B13C028E1289FF001299F4B
:10295000F00D1124E15EFB4FE40FF51F21E030E0A4
:1029600001C0220FCA95EAF72095308123232083E6
:10297000FC01E35EFB4F21E02083DF91CF910895BE
:10298000EF92FF921F93CF93DF93C62FD0E09E016B
:10299000215B3B4F7901F90190819923D9F0182FE0
:1029A00045EC6EEF0E94541341E06DEF812F0E94C1
:1029B000541380EC8C9FB0018D9F700D11246059D1
:1029C0007A4F812F0E946713811104C0C35EDB4FD1
:1029D00081E08883F7011082DF91CF911F91FF90F2
:1029E000EF900895CF92DF92FF920F931F93CF93B2
:1029F000DF93262F30E0A901435E5B4F6A01FA01A5
:102A0000908191110AC0F6011082DF91CF911F9140
:102A10000F91FF90DF90CF900895C62FF82E45ECD0
:102A20006EEF0E94541340E06DEF8F2D0E945413FF
:102A3000F8E1CF9FE001112400E010E0F801EC0F75
:102A4000FD1FE15EFB4F4081602F8F2D0E945413CC
:102A50000F5F1F4F0831110589F7D5CF882311F07B
:102A6000FA0101C0FB0109940F931F93CF93FB015F
:102A7000C281CC2309F450C08C010E947C22827256
:102A8000F801E25CFC45E431F10508F048C0E25988
:102A9000FF4F0C94992F0E94601240C049E952E107
:102AA0006AE872E104C04AE852E169E972E10E9411
:102AB0002E1534C04DEC52E16AEB72E1F8CF4AEBCF
:102AC00052E16DEC72E1F3CF4FEE52E16EED72E147
:102AD000EECF4EED52E16FEE72E1E9CF41E153E10D
:102AE00060E073E1E4CF40E053E161E173E1DFCF07
:102AF0004FE253E160E273E1DACF40E253E16FE28B
:102B000073E1D5CF81E005C084E003C089E001C056
:102B10008EE00E947A1202C0C1E001C0C0E08C2F9A
:102B2000CF911F910F910895AF92BF92CF92DF92F4
:102B3000EF92FF920F931F93CF93DF937C015B0182
:102B4000C42FD22FFC0182818823F9F040935304D3
:102B50000E941125909352048093510480E28C0FBF
:102B6000883008F06EC0C77081E001C0880FCA9538
:102B7000EAF7DF91CF911F910F91FF90EF90DF90D7
:102B8000CF90BF90AF900C94A31A80915304481338
:102B900035C080915104909152040E9429256C0106
:102BA000B701C5010E94E31FC816D90638F510E227
:102BB0001D0FCD17B9F080E28C0F883040F4C7703C
:102BC00081E001C0880FCA95EAF70E94AA1A18305E
:102BD00058F581E09D2F977001C0880F9A95EAF70C
:102BE0000E94A31A802F0E94901A183050F5D770B7
:102BF00081E001C0880FDA95EAF70AC080E28C0F05
:102C00008830F8F4C77081E001C0880FCA95EAF7F0
:102C1000DF91CF911F910F91FF90EF90DF90CF90B8
:102C2000BF90AF900C94AA1A802FDF91CF911F9183
:102C30000F91FF90EF90DF90CF90BF90AF900C94EA
:102C4000901ADF91CF911F910F91FF90EF90DF903D
:102C5000CF90BF90AF9008950F939C01CB01233F7D
:102C60004CE5340731F188F4283DFCE53F07D9F005
:102C7000293D4CE5340779F1273D3C45A9F506E2AD
:102C800021EE41EE67ED7CE52BC0253FFCE53F07DB
:102C9000E1F0A8F0263F3C4539F507E225EE46EE87
:102CA00066EF7CE51DC007E225EE45EE68ED7CE5AC
:102CB00017C006E221EE40EE63EF7CE511C007E2AB
:102CC00025EE44EE64EF7CE50BC006E221EE42EE19
:102CD00065EF7CE505C008E221E045EE69ED7CE5A5
:102CE0000E94941580E008C0FC018281882319F0BD
:102CF0001092530401C081E00F910895CF93DF93A8
:102D0000EC01FB018281882309F41FC1C230FCE57C
:102D1000DF0708F41BC1C6319CE5D90738F09E01D6
:102D20002A5F3C452930310508F010C10E94392343
:102D30009093090780930807C031ECE5DE0709F49A
:102D4000C3C008F041C0C8308CE5D80709F49AC068
:102D5000F0F4C430ECE5DE0709F487C068F4C23053
:102D60008CE5D80709F477C0C330DC4509F0E3C02F
:102D700080910807826076C0C630ECE5DE0709F472
:102D80006EC008F07BC08091080788606BC0CC30B3
:102D90008CE5D80709F485C068F4CA30ECE5DE0795
:102DA00009F474C008F079C00E942A1D80910807B8
:102DB000806858C0CE308CE5D80709F476C008F09A
:102DC0007FC0809108078BC0CB3FECE5DE0709F49C
:102DD0004FC018F5C3318CE5D80709F47DC078F4ED
:102DE000C131ECE5DE0709F473C0C231DC4509F0FE
:102DF000A2C00E942A1D809108078F7733C0C53179
:102E00008CE5D80709F472C008F486C0CA3FDC45D7
:102E100009F091C0809109073EC0CF3FFCE5DF0774
:102E200009F45FC058F4CD3F9CE5D90709F444C0CC
:102E300008F43FC08091090782602DC0C130FDE5D4
:102E4000DF0709F475C008F45DC0C230DD4509F044
:102E500072C080E06EC080910807816003C08091DD
:102E6000080780618093080766C08091080711C039
:102E7000809109078260809309075DC080910807EF
:102E80008062F0CF809108078064ECCF80910807C2
:102E900088608460E7CF8160EECF809108078E7FE5
:102EA000E1CF809108078D7FDDCF80910807877F74
:102EB000D9CF8091090718C0809109078D7FDBCF9A
:102EC000809108078F7ECECF809108078F7DCACF73
:102ED000809108078F7BC6CF80910807877F8B7F03
:102EE000C1CF809109078D7F8E7FC5CF8091080764
:102EF00082FB222720F991E0922790FB82F990FB38
:102F000083F9B0CF80910907982F909591708E7FAB
:102F1000892B90FB81F9AFCF0E942A1D8091080771
:102F200087FB222720F991E0922790FB87F99ACF1F
:102F300081E00E94C82380910807909109070E94B0
:102F40004A230E942A1D80E001C081E0DF91CF91D9
:102F50000895CF93DF9386319C4541F5EB010E94A4
:102F60007C22982F8A8120910D0230910E028823B5
:102F700079F09A7A81E009F480E080935404911109
:102F800002C069E201C065E3C9010E9463240AC06E
:102F900080915404811102C069E201C065E3C90156
:102FA0000E946E240E94BD2280E001C081E0DF917A
:102FB000CF9108951092B9008CE08093B8000895E5
:102FC000EF92FF920F931F93CF93DF93182FEB0194
:102FD0001092BC0084EA8093BC000E9411257C0101
:102FE0008091BC0087FD0EC0CF3F8FEFD807C1F3A3
:102FF0000E9411258E199F098C179D0788F38EEF6B
:103000009FEF2EC08091B900887F883041F0809179
:10301000B900887F803119F08FEF9FEF21C01093A6
:10302000BB0084E88093BC000E9411258C01809134
:10303000BC0087FD0CC0CF3F8FEFD807C1F30E94C3
:103040001125801B910B8C179D0788F3D8CF809199
:10305000B900887F883111F08034F1F680E090E08B
:10306000DF91CF911F910F91FF90EF9008950F93F3
:103070001F93CF93DF93EB018093BB0084E8809391
:10308000BC000E9411258C018091BC0087FD0EC000
:10309000CF3F8FEFD807C1F30E941125801B910B02
:1030A0008C179D0788F38EEF9FEF0CC02091B9001D
:1030B000287F81E090E0283211F480E090E0919543
:1030C00081959109DF91CF911F910F910895CF9232
:1030D000DF92EF92FF920F931F93CF93DF936B01D9
:1030E0008A017901B9010E94E017E6010C0D1D1D4E
:1030F000C017D10761F424E92093BC00DF91CF9180
:103100001F910F91FF90EF90DF90CF90089597FD62
:10311000F2CFB70189910E943718EACF90935A04F1
:10312000809359040895E0915904F0915A0430971E
:1031300021F00190F081E02D099480E00895E09164
:103140005904F0915A04309711F480E008950190E9
:10315000F081E02D09950895E0915904F0915A0409
:10316000309799F020912102222359F020910807ED
:1031700027FF07C0DC012C9111962C93119725E0B5
:103180002C930280F381E02D09940895E091590475
:10319000F0915A04309739F022E0DC012C9304803E
:1031A000F581E02D09940895209157043091580439
:1031B0002817390771F09093580480935704E091D1
:1031C0005904F0915A04309721F00680F781E02DE0
:1031D0000994089520915504309156042817390711
:1031E00071F09093560480935504E0915904F09146
:1031F0005A04309721F00084F185E02D0994089558
:1032000085B7806885BF85B7806885BF08950895B4
:103210000C9407190C9408190C9407190C940719AD
:103220000E9400190E940C190C940A1981E008955B
:103230000C9416190E9408250E94DE050E94B425F0
:103240000C940E197F928F929F92AF92BF92CF9261
:10325000DF92EF92FF920F931F93CF93DF93CDB73F
:10326000DEB72A970FB6F894DEBF0FBECDBF0E941F
:1032700030060E941819811111C08FEF89838A834B
:103280001B820E9411258160782F9D838C83498148
:103290005A816B818D810E94D2194FC04CE5A42EBA
:1032A00044E0B42E00E010E0702E802F0E94C7058D
:1032B0006C01F501819091905F0188269926811417
:1032C000910431F40F5F1F4F0530110569F7D5CF19
:1032D0008091F90481FD0E94D00580E0EE24E39402
:1032E000F12C94012E213F21232B09F18E837F8223
:1032F000CE20DF2081E0CD2809F480E088870E947D
:1033000011258160782F9A8789874E815F81688532
:103310008A850E94D219000F111FF801E45AFB4F51
:1033200080819181E826F926F182E08206C08F5FD4
:10333000EE0CFF1C8E30A9F6C5CF0E9463270E94B9
:10334000931890915B048917C9F00E949318809399
:103350005B042A960FB6F894DEBF0FBECDBFDF9197
:10336000CF911F910F91FF90EF90DF90CF90BF9082
:10337000AF909F908F907F900C9479032A960FB610
:10338000F894DEBF0FBECDBFDF91CF911F910F919B
:10339000FF90EF90DF90CF90BF90AF909F908F9075
:1033A0007F900895CF93DF93CDB7DEB72B970FB6FD
:1033B000F894DEBF0FBECDBF4F83588769877A87E9
:1033C0008B87DE01119686E0FD0111928A95E9F75F
:1033D00085E0FE01379601900D928A95E1F74981CB
:1033E0005A816B817C818D819E810E94E61F2B9684
:1033F0000FB6F894DEBF0FBECDBFDF91CF91089519
:10340000FC01808191810E943D220895CF93882301
:1034100009F450C0C82F8CEF8C0F813AD0F46C2F78
:1034200080910D0290910E020E94E323882349F0BF
:103430006C2F80910D0290910E020E946E240E94CA
:10344000BD226C2F80910D0290910E020E94632488
:103450000CC080E28C0F883058F4C77081E001C046
:10346000880FCA95EAF70E947F22CF910C94BD2263
:10347000EBE5EC0FE33040F4F0E0ED55FC4F8081DC
:1034800090E0CF910C94D418E8E5EC0FE73150F4BC
:10349000F0E0EE0FFF1FEB58FC4F80819181CF9140
:1034A0000C94EA18C03F30F08C2F0E945826CF9120
:1034B0000C944527CF910895882389F19CEF980FAC
:1034C000913A40F4682F80910D0290910E020E9473
:1034D0006E240DC090E2980F983058F4877091E0F8
:1034E00001C0990F8A95EAF7892F0E9485220C94D2
:1034F000BD229BE5980F933020F480E090E00C947F
:10350000D41898E5980F973120F480E090E00C945F
:10351000EA18803F20F00E94C0260C9445270895A9
:10352000CF93C82F0E94061AC93349F42FEF87EEB4
:1035300093E0215080409040E1F700C000008C2FC4
:10354000CF910C945C1A882321F00E947F220C9466
:10355000BD220895882321F00E9485220C94BD226B
:103560000895CF92DF92EF92FF920F931F93CF9324
:10357000DF937C01D62FC72FFC01058102950F70C8
:10358000128111110E949C220E947522882399F0B9
:10359000112389F08C2F807F803421F080E28D0F01
:1035A000883048F082E00E9407230E94752291E053
:1035B000D82ED92601C0D12CCC2EC2948FE0C8229F
:1035C0008C2D90E08C30910508F0B6C1FC01EE57CF
:1035D000FF4F0C94992F8C2F807FCF70882311F090
:1035E000C295C07F112399F0CC2309F491C180E2E8
:1035F0008D0F883010F0D11104C08C2F0E947F22D3
:1036000003C08C2F0E948F220E94BD2281C18D2F6A
:103610000E945C1ACC2309F48FC180E28D0F8830A0
:1036200010F0D11104C08C2F0E94852203C08C2F72
:103630000E9495220E94BD227FC18C2F807FCF7077
:10364000803211F0C295C07FDD2319F0D130C9F06E
:1036500022C0112371F0002341F0013031F40E94A7
:10366000A2228C2B0E94AA2267C10E94A2228C2B2C
:103670001DC0002319F0013009F45EC10E94B3227D
:1036800025C0112321F0063008F056C10EC00530C8
:1036900008F052C11BC0112361F0002331F0F70183
:1036A000858180FF35C18F7085838C2F0E94A31A7E
:1036B00043C1002359F0D93309F03BC1FFEF07EEB6
:1036C00013E0F15000401040E1F731C18C2F0E940F
:1036D000AA1A32C18C2F86958695837019F0813095
:1036E00061F02AC1112321F08D2F9C2F937002C00D
:1036F00080E090E00E94D41827C1112321F08D2F83
:103700009C2F937002C080E090E00E94EA181CC1D8
:103710008D2F112319F00E94582602C00E94C02646
:103720000E94452711C18C2F837009F047C01111E9
:1037300007C12D2F229526952770220F220F6D2F5E
:103740006F70862F90E0A0E0B0E0022E04C0880FDA
:10375000991FAA1FBB1F0A94D2F7D4FF10C04FE0D5
:1037600050E060E070E004C0440F551F661F771FF3
:103770002A95D2F7409550956095709503C040E02A
:1037800050E0BA01C695C695C3708A019B01082B0B
:10379000192B2A2B3B2BC901B801C23049F058F430
:1037A000C13019F00E94BA20CBC00E94A820C8C026
:1037B0000E94CC20C5C00E94A620C2C0112319F0CF
:1037C0008C2F817001C08695882309F4B9C02D2FF4
:1037D000229526952770220F220F6D2F6F70862F4E
:1037E00090E0A0E0B0E0022E04C0880F991FAA1F4D
:1037F000BB1F0A94D2F7D4FF10C04FE050E060E046
:1038000070E004C0440F551F661F771F2A95D2F73A
:10381000409550956095709503C040E050E0BA0126
:10382000C695C695C3708A019B01082B192B2A2BBC
:103830003B2BC901B801C23049F058F4C13019F02E
:103840000E947F217DC00E946D217AC00E9491213B
:1038500077C00E94E02074C0CF70112339F08C2F04
:103860000E9406218D2F0E94A31A6AC08D2F0E94EC
:10387000AA1A8C2F0E94272163C0D23F01F128F49D
:10388000D03F41F0D13FA1F03FC0D33FF9F0D43F4A
:1038900039F13AC0112341F0053008F04DC08C2FAA
:1038A0008F710E944C2148C0063008F045C0F7CF08
:1038B000112339F08C2F8F710E9406213DC01123F6
:1038C000C9F38C2F8F710E94272136C0112329F054
:1038D0008C2F8F710E94F1202FC00E94EC202CC0F1
:1038E000112349F0CF718C2F0E94062163E08C2FA9
:1038F0000E94F22221C081E00E9407230230E0F002
:1039000082E00E94072318C0112331F0002391F2B6
:103910008D2F0E94061A10C0002399F2D93349F462
:103920001FEF27EE33E0115020403040E1F700C098
:1039300000008D2F0E945C1A88EF8C0D843020F4DB
:103940000E9493180E947903DD20C9F00E94712221
:1039500080FD15C0F70112820E946B220E94062191
:10396000C7010E94E01C0E946B22DF91CF911F9142
:103970000F91FF90EF90DF90CF900C942721DF9173
:10398000CF911F910F91FF90EF90DF90CF9008950E
:103990000F931F93CF93DF93EC01688179818A8124
:1039A0000E9448228C010E94A3210E949420B80109
:1039B000CE010E94B11ADF91CF911F910F9108950E
:1039C000CF93DF93EC01988189812B813C81232B5C
:1039D00031F08F3F31F481E09F3F19F403C081E063
:1039E00001C080E080FD19C0CE010E9492038111C8
:1039F0000CC00E947522882381F08A81882369F097
:103A000082E0DF91CF910C940723CE010E94C81C65
:103A1000CE01DF91CF910C945703DF91CF910895A0
:103A20000E949C220E949F220E94BD220E94762812
:103A30000E94452780E090E00E94D41880E090E04A
:103A40000C94EA1880910D0290910E020E94792444
:103A50000C94101D0E948C220C94221DE92FE295DB
:103A6000EF704E2F50E0FA013297EE30F105B0F4CE
:103A7000E257FF4F0C94992F803F91F018F4883E45
:103A800068F40EC0843F51F40BC0883E48F0813F7B
:103A900029F406C093FB882780F9089580E00895F3
:103AA00081E008950E943D220E942E1D0895CF932B
:103AB000DF9300D000D01F92CDB7DEB70F900F90EC
:103AC0000F900F900F90DF91CF910895CF93DF93D8
:103AD00000D000D000D0CDB7DEB726960FB6F89450
:103AE000DEBF0FBECDBFDF91CF9108951F93CF935F
:103AF000DF93C091670416E080916804C81799F0BD
:103B0000D0E01C9FF0011D9FF00D1124E759FB4FE1
:103B10004081518162817381848195810E94661DFB
:103B20002196C770E9CFDF91CF911F910895409101
:103B3000990450919A0460919B0470919C04809127
:103B40009D0490919E040C94661D0F931F93CF9338
:103B5000DF9380919E0482958F7009F05DC0809103
:103B60009B04882309F458C080916704109168046D
:103B70006091990470919A04C0919C04D0919D0425
:103B800091E06F3F09F090E0292F06E0811709F4DA
:103B900043C0209721F07F3F21F030E003C031E0A7
:103BA00001C0322F90E030FD34C0089FF001099F22
:103BB000F00D1124DF01A759BB4F11963C911197CD
:103BC000371327C03C91361324C012963C911297AC
:103BD00031111FC013964D915C9114974C1B5D0BD6
:103BE000483C5105B0F480919E048F7080618093B1
:103BF0009E04E259FB4F80818F708061808389E948
:103C000094E00E94E01CDF91CF911F910F910C94E2
:103C1000761D01968770BACFDF91CF911F910F91DA
:103C200008959F92AF92BF92CF92DF92EF92FF9250
:103C30000F931F93CF93DF93CDB7DEB761970FB686
:103C4000F894DEBF0FBECDBF8C0185E0F801DE0128
:103C50001D9601900D928A95E1F7F80140815181FE
:103C6000E2809091990460919A0420919C04309193
:103C70009D042115310531F06F3F31F481E09F3F04
:103C800019F403C081E001C080E0F82FF1709F2E8D
:103C900080FD46C1F801A380B48089E9C82E84E084
:103CA000D82EF0909B04F501E21BF30BFF2009F4E2
:103CB000DFC080919E04E83CF10508F09BC0282FEE
:103CC000207F09F052C0561313C0491311C0FE2CB7
:103CD000E1100EC08F70806180939E040E94971D3A
:103CE000C6010E94E01C80919E04F801858358C1A2
:103CF000AB2831F05F3F31F481E04F3F19F403C04E
:103D000081E001C080E080FD03C081E08E2502C01B
:103D100080E090E0F82FF170FF2E80FF1CC08091B2
:103D200067042091680436E0821709F417C190E017
:103D3000389FF001399FF00D1124E759FB4F618145
:103D4000561306C06081461303C06281E61203C0A9
:103D500001968770E9CFFE2CEE2009F421C18091F5
:103D60009E04816080939E045AC0561306C0491376
:103D700004C0E11002C0F8019FC04D875E878D85A9
:103D80009E850E94521D882379F1EE2069F12091D1
:103D90009E04822F82958F7090E0029774F080913C
:103DA000990490919A0498878F831986BB86AA8676
:103DB0002C87CE0107960E94E01C86E0F801A9E955
:103DC000B4E001900D928A95E1F70E94A51D0E9432
:103DD000971D0DC0561729F14D875E878D859E85ED
:103DE0000E94521D81112CC0C8010E94E01CFF24BA
:103DF000F394D6C0282F207F69F77A2DB98AA88A34
:103E00006E2D89890E94571D89E994E00E94E01C6B
:103E100086E0F60111928A95E9F70E94971DF12C30
:103E2000BFC04913D9CFE110D7CFF8018583C801AE
:103E30000E94E01C86E0F60111928A95E9F7B0C075
:103E4000EE2091F220919E04822F82958F7090E057
:103E500002970CF4B2CF8091990490919A049A83BE
:103E600089831B82BD82AC822E83CE010196A3CFB3
:103E7000E83CF10508F047C0FE2CEE2009F4B4CF71
:103E8000561330C049132EC020919E0420FD21C03E
:103E9000822F82958F70482F50E041155105C9F04F
:103EA000F80125834F30510541F08F5F982F92958F
:103EB000907F822F8F70892B8583C8010E94E01C20
:103EC00086E0F801A9E9B4E001900D928A95E1F746
:103ED00042C086E0F801A9E9B4E001900D928A950C
:103EE000E1F75EC04D875E878D859E850E94521DDD
:103EF000811163CF80919E04816080939E04C801EC
:103F00000E94E01C4DC07A2DB98AA88A6E2D89893D
:103F10000E94571D86E0F60111928A95E9F71BC0B1
:103F2000EE2009F461CF4D875E878D859E850E94C6
:103F3000521DF82E882309F457CF86E0F801A9E92D
:103F4000B4E001900D928A95E1F789E994E00E942E
:103F5000001A0E94A51D0E94971D22C04D875E87F2
:103F60008D859E850E943D22292F22952F7022301B
:103F700028F49F7039F0811105C00BC0243028F45B
:103F80009F7049F4805E883020F0C8010E94E01CD8
:103F90009F2CF92C05C0F8019581907F99F7F9CFF6
:103FA0008F2D61960FB6F894DEBF0FBECDBFDF91A7
:103FB000CF911F910F91FF90EF90DF90CF90BF9026
:103FC000AF909F90089588EC90E008951F93CF9351
:103FD000DF93CDB7DEB72C970FB6F894DEBF0FBED8
:103FE000CDBF4F83588769877A878B879C87CE019F
:103FF00007960E94111E8823D1F09F8188852A850B
:104000003B85232B31F08F3F31F481E09F3F19F442
:1040100003C081E001C080E080FD47C04F8158852A
:1040200069857A858B859C850E94661D3EC086E0E9
:10403000FE013796DE01119601900D928A95E1F707
:10404000FF81E8856A857B856115710531F0EF3F59
:1040500031F481E0FF3F19F403C081E001C080E04A
:1040600080FD23C02091680430E0C901019687706B
:1040700099274091670450E084179507F1F1F9837F
:10408000EA837D836C8396E0929FD001939FB00D6D
:104090001124A759BB4FFE01319601900D929A95BC
:1040A000E1F7809368040E94761D16E08091670412
:1040B00090916804891771F1189FC00111248759E4
:1040C0009B4F0E94111E882329F1E09167041E9FD7
:1040D000F0011124E759FB4F4081518162817381C6
:1040E000848195810E94661D8091670490E001960D
:1040F0008770992780936704D9CF0E942A1D109258
:10410000680410926704E9E9F4E086E0DF011D929B
:104110008A95E9F72C960FB6F894DEBF0FBECDBF97
:10412000DF91CF911F910895089508950C949520E3
:104130000C9496200E9498206093D0047093D10430
:104140008093D2049093D3040C94101D0C949A2065
:104150000F931F930091D0041091D1042091D204A9
:104160003091D304602B712B822B932B1F910F91D5
:104170000C949A200F931F930091D0041091D104B6
:104180002091D2043091D30460237123822393239E
:104190001F910F910C949A200F931F930091D004BC
:1041A0001091D1042091D2043091D304602771275B
:1041B000822793271F910F910C949A200C9495209D
:1041C0000E94DE206093CC047093CD048093CE04D3
:1041D0009093CF040C94101D60E070E0CB010C9420
:1041E000E0200F931F9341E050E060E070E08A010F
:1041F0009B0104C0000F111F221F331F8A95D2F7A5
:10420000C901B8011F910F910C94E0200F931F93E7
:1042100041E050E060E070E004C0440F551F661FAD
:10422000771F8A95D2F78091CC049091CD04A0910C
:10423000CE04B091CF048A019B01082B192B2A2BA5
:104240003B2BC901B8011F910F910C94E0200F93F3
:104250001F9341E050E060E070E004C0440F551F40
:10426000661F771F8A95D2F7409550956095709597
:104270008091CC049091CD04A091CE04B091CF0454
:104280008A019B01082319232A233B23C901B80172
:104290001F910F910C94E0200F931F9341E050E089
:1042A00060E070E004C0440F551F661F771F8A95B9
:1042B000D2F78091CC049091CD04A091CE04B0911E
:1042C000CF048A019B01082719272A273B27C90108
:1042D000B8011F910F910C94E0200F931F93009150
:1042E000CC041091CD042091CE043091CF04602BEA
:1042F000712B822B932B1F910F910C94E0200F9325
:104300001F930091CC041091CD042091CE043091E4
:10431000CF0460237123822393231F910F910C9468
:10432000E0200F931F930091CC041091CD042091B5
:10433000CE043091CF0460277127822793271F91E5
:104340000F910C94E02008952EE0929F800D11248F
:10435000E82FE695E695E695877051E001C0550F88
:104360008A95EAF785E0E89FF0011124E156FB4FBA
:1043700020E030E070E04081CB01022E02C0969533
:1043800087950A94E2F78170819584278523842795
:1043900081932F5F3F4F2530310569F708952EE057
:1043A000929F800D1124682F669566956695982FCB
:1043B000977085E0689FB001112440E050E080E0F4
:1043C000FB01E40FF51FE156FB4F208130E0092E81
:1043D00002C0369527950A94E2F721703327042E00
:1043E00001C0220F0A94EAF7822B4F5F5F4F4530DE
:1043F000510531F70895BF92CF92DF92EF92FF926D
:104400000F931F93CF93DF938C01C090CC04D09077
:10441000CD04E090CE04F090CF048091D004909130
:10442000D104A091D204B091D304C82AD92AEA2A8F
:10443000FB2ACFE1D0E0D701C6010C2E04C0B6950F
:10444000A795979587950A94D2F780FD04C0219788
:1044500090F7B12C07C0BC2EB8018C2F0E94EE0340
:104460000197A9F38B2DDF91CF911F910F91FF90B1
:10447000EF90DF90CF90BF900895CF93DF93EC0142
:104480000E94FB21BE010E94EE03DF91CF910895AF
:104490001F93CF93DF93EB0190916604992321F052
:1044A000CB010E943D2213C0882349F0CB010E941A
:1044B000FB21182F682FCE010E94A42104C0CB013C
:1044C0000E94CF21182FBE01812F0E94EE03DF91A1
:1044D000CF911F9108958091D404859585958595F8
:1044E00008958091D404877008959091D4049770B2
:1044F00081E009F480E008958091F8040895909196
:10450000F804892B8093F804089580959091F8041D
:1045100089238093F80408951092F80408959091E7
:10452000F704892B8093F704089580959091F70400
:1045300089238093F70408951092F7040895109248
:10454000F60408958091D504089508950C94A52249
:104550000C94A6229091D504981721F08093D5044D
:104560000C94A82208958091D504882329F01092F4
:10457000D50480E00C94A8220895E0910D02F091FA
:104580000E028091F8048083E0910D02F0910E02FA
:1045900090818091F704892B8083E0910D02F09146
:1045A0000E0290818091F604892B80838091D5043E
:1045B000882381F0E0910D02F0910E029081892B09
:1045C000808380910D0290910E020E94CD23811173
:1045D0000E94B32280910D0290910E020C94AC18AF
:1045E0000C94A52298E0899F90011124262B2093FA
:1045F000D4040E9406218091D404859585958595E3
:104600000C94F0221092D40480E00C94F0222091BB
:10461000D404809582238093D404982F977079F4E2
:1046200030E0482F082E000C550B2417350739F0C1
:104630008595859585950E9427210C9402230895E0
:104640006FEF7FEF80E090E00C94723080E090E0BC
:104650000E943E3021E08C3E9E4F09F020E0822FE8
:10466000089582E090E00C94363083E090E00C9462
:104670003630CF9384E090E00E943630C82F81E23C
:1046800090E00E9436302C2F30E0A901582BCA014F
:10469000CF910895CF93C92F682F84E090E00E94B6
:1046A00054306C2F81E290E0CF910C945430AB01E8
:1046B000BC018FE090E00C946630AB01BC0183E15B
:1046C00090E00C94663060E070E0CB010C945D23C8
:1046D00060E070E0CB010E9457230C9463236CEEE2
:1046E0007EEF80E090E00E94723060E082E090E037
:1046F0000E94543060E083E090E00E9454301092B9
:10470000D0041092D1041092D2041092D30460E02D
:1047100084E090E00E94543060E081E290E00E94EA
:10472000543060E085E090E00E94543060E086E024
:1047300090E00E9454306FEF87E090E00E94543088
:1047400040E050E0BA0188E090E00E94663060E00E
:104750008DE090E00E94543040E050E0BA0188E1E2
:1047600090E00E94663060E087E190E00E94543063
:1047700040E050E0BA018CE190E00E94663060E0D9
:1047800080E290E00E9454300C9468230C946F23D4
:10479000682F8EE090E00C945430FC0132968091AA
:1047A0002102882331F08091080787FF02C09EE133
:1047B00001C096E080E0915028F021912223D9F3A6
:1047C0008F5FF9CF0895662351F1209121022223B2
:1047D000E9F02091080727FF19C0462F4695469516
:1047E00046954E31E0F4677021E030E002C0220FC0
:1047F000331F6A95E2F7FC01E40FF11D828190E01E
:104800002823392381E0232B69F409C0FC01329667
:1048100008962191621729F0E817F907D1F780E08F
:10482000089581E008959C01FC0132969FEF80E09D
:104830004191461789F09F3F19F4411101C0982F0B
:104840008F5F8630A9F79F3F39F0F901E90FF11D1D
:1048500097FDFA956283089508959C012A5F3F4F62
:10486000FC014281461301C0128201968217930710
:10487000B9F70895262F2695269526952E3168F4AA
:10488000FC01E20FF11D677021E030E001C0220F52
:104890006A95EAF78281282B22830895262F269590
:1048A000269526952E3170F4FC01E20FF11D6770FC
:1048B00021E030E001C0220F6A95EAF7209582815D
:1048C00028232283089520912102222329F0209178
:1048D000080727FD0C943A240C94132420912102FC
:1048E000222329F02091080727FD0C944E240C94D4
:1048F0002D2420912102FC013296222331F0809157
:10490000080787FF02C08EE101C086E0DF011D922B
:104910008A95E9F7089508950C948B240C948B24C0
:10492000CF930E948E240E9430060E948C24C0E007
:104930008C2F0E94C705892B29F4CF5FC530C1F7A2
:1049400080E001C081E0CF9108950C948B240E94F7
:10495000FC0280910E07843049F11092FA0420E4A1
:1049600088E190E00FB6F894A895809360000FBEA0
:104970002093600080E00E9479030E94FC0283B7CC
:10498000817F846083BF83B7816083BF789488957B
:1049900083B78E7F83BF0FB6F894A895809160008F
:1049A000886180936000109260000FBE08950E949D
:1049B0002A1D0E9493180E9479030C9401031F92F0
:1049C0000F920FB60F9211248F939F93AF93BF93C3
:1049D0008091FA04811113C080910407909105071A
:1049E000A0910607B09107074196A11DB11D8093C4
:1049F000040790930507A0930607B0930707BF919C
:104A0000AF919F918F910F900FBE0F901F901895AF
:104A100082E084BD93E095BD9AEF97BD80936E00D0
:104A200008952FB7F8948091040790910507A091FD
:104A30000607B09107072FBF08952FB7F89460912C
:104A400004077091050780910607909107072FBF13
:104A500008959C014FB7F894809104079091050741
:104A6000A0910607B09107074FBF821B930B0895D3
:104A7000CF92DF92EF92FF922FB7F894C090040785
:104A8000D0900507E0900607F09007072FBFA70119
:104A90009601261B370B480B590BCA01B901FF9031
:104AA000EF90DF90CF90089578941F920F920FB6F9
:104AB0000F9211248F939F93AF93BF93809104071C
:104AC00090910507A0910607B09107070196A11DD7
:104AD000B11D8093040790930507A0930607B09338
:104AE0000707BF91AF919F918F910F900FBE0F90CD
:104AF0001F90189581E08093E00080E28093D800B9
:104B00001092C9008FE19EE40197F1F700C0000008
:104B100087E090EBDC018093170790931807A09330
:104B20001907B0931A079CE088E10FB6F894A8958E
:104B3000809360000FBE90936000FFCF0C94202301
:104B40000E9430068FEB9DE50197F1F700C0000051
:104B50000E94300680E00E94C70580FF04C00E94CA
:104B60009E250C947A2508950E942623811102C067
:104B70000E94C6230E9431238093F9040E943923A6
:104B800090930907809308070E943523682F70E0EF
:104B900080E090E00E94A6206091CC047091CD044A
:104BA0008091CE049091CF040C94DE208091010579
:104BB00080FF0BC06091140285E0689FB001112452
:104BC00075956795759567952BC081FF09C06091B4
:104BD000140285E0689FB00111247595679520C087
:104BE00082FF07C06091140285E0689FB001112424
:104BF00017C0909100059923D1F060911302961788
:104C000088F72091140285E0289F90011124929F3B
:104C1000A001939F500D112470E0CA010E94662FDD
:104C20006038710540F46115710519F406C065E03E
:104C300070E0862F08958FE7089581E008958091B0
:104C4000010580FF08C06091100270E075956795BE
:104C50007595679521C081FF06C06091100270E0D4
:104C60007595679519C082FF04C06091100270E0CD
:104C700010C09091FF04992399F060910F0296174C
:104C8000A0F780911002899FC001112470E00E945A
:104C9000662F6038710540F46115710519F406C07E
:104CA00061E070E0862F08958FE7089581E0089510
:104CB000803F21F40E94D625819504C0813F29F4CC
:104CC0000E94D625809305050895823F21F40E9415
:104CD000D625819504C0833F29F40E94D625809370
:104CE00004050895893F19F40E941F2605C08A3FD4
:104CF00031F40E941F2681958093060508958B3F0D
:104D000021F40E941F26819504C08C3F29F40E9443
:104D10001F26809307050895843F21F480910305A1
:104D2000816017C0853F21F480910305826011C026
:104D3000863F21F48091030584600BC0873F21F4F6
:104D400080910305886005C0883F31F48091030598
:104D500080618093030508958D3F21F480910105C2
:104D600081600BC08E3F21F480910105826005C0F7
:104D70008F3F29F480910105846080930105089597
:104D8000803F39F48091050587FF6AC010920505C0
:104D900067C0813F29F4809105051816BCF360C0F7
:104DA00090910405823F29F497FF5AC010920405A0
:104DB00057C0833F19F41916CCF352C090910605E1
:104DC000893F31F419160CF04BC01092060548C00B
:104DD0008A3F19F497FF44C0F8CF8B3F39F4809194
:104DE000070587FF3DC0109207053AC08C3F29F4A4
:104DF000809107051816BCF333C0843F21F48091DD
:104E000003058E7F17C0853F21F4809103058D7FB8
:104E100011C0863F21F4809103058B7F0BC0873F33
:104E200021F480910305877F05C0883F31F480918C
:104E300003058F7E8093030513C08D3F21F480917D
:104E400001058E7F0BC08E3F21F4809101058D7F7F
:104E500005C08F3F29F4809101058B7F8093010568
:104E600080910405811106C080910505811102C061
:104E70001092000580910605811106C080910705FA
:104E8000811102C01092FF0408950E941125209103
:104E90000405211104C020910505222321F09093DF
:104EA000FE048093FD0420910605211104C0209189
:104EB0000705222321F09093FC048093FB0482E0F9
:104EC00095E00C94C618EF92FF920F931F93CF9327
:104ED000DF9300D000D000D0CDB7DEB786E0E2E0AF
:104EE000F5E0DE01119601900D928A95E1F7E090D0
:104EF0000405F09005050091060510910705109234
:104F00000405109205051092060510920705E110A0
:104F100003C0FF2009F45DC08091FD049091FE0460
:104F20000E942925AC0190910005992339F0209128
:104F3000150230E02417350758F04BC020911602B7
:104F40008AE0289F900111242417350718F041C0EA
:104F50009F3F19F09F5F90930005EE2061F00E9443
:104F6000D6251E1414F09FEF01C091E0989F902D5C
:104F7000112490930405FF2061F00E94D6251F1490
:104F800014F09FEF01C091E0989F902D1124909311
:104F90000505309104053323E1F020910505222316
:104FA000C1F045EB3403C0011124992319F090930B
:104FB000040503C081E08093040535EB2303C001A1
:104FC0001124992319F09093050503C081E0809383
:104FD0000505011103C0112309F45DC08091FB0494
:104FE0009091FC040E942925AC019091FF04992323
:104FF00039F02091110230E02417350758F04BC0EA
:10500000209112028AE0289F90011124241735076D
:1050100018F041C09F3F19F09F5F9093FF04002359
:1050200061F00E941F26101614F09FEF01C091E05E
:10503000989F902D112490930605112361F00E94F2
:105040001F26111614F09FEF01C091E0989F902D3C
:10505000112490930705309106053323E1F0209148
:1050600007052223C1F045EB3403C0011124992325
:1050700019F09093060503C081E08093060535EB97
:105080002303C0011124992319F09093070503C04D
:1050900081E0809307058091040581110BC0809108
:1050A0000505811107C080910605811103C080911B
:1050B000070581110E944527EB82FC820D831E8328
:1050C00086E0FE013196A2E0B5E001900D928A954E
:1050D000E1F726960FB6F894DEBF0FBECDBFDF9185
:1050E000CF911F910F91FF90EF900895E2E0F5E0CE
:1050F00086E0DF011D928A95E9F710920005109273
:10510000FF04109201050895809128050895CF931A
:10511000DF9300D01F92CDB7DEB790910E07943089
:1051200019F589837B836A8382E08093E9008FEF9E
:105130009091E800815095FD06C095ED9A95F1F7A4
:1051400000008111F5CF8091E80085FF0DC040E09F
:1051500050E063E070E0CE0101960E94B42A809195
:10516000E8008E778093E8000F900F900F90DF910A
:10517000CF910895BC0184E00C948728BC0183E0A2
:105180000C94872822E02093E9002FEF3091E8006B
:10519000215035FD06C035ED3A95F1F7000021119B
:1051A000F5CF2091E80025FF0BC040E050E066E01D
:1051B00070E00E94B42A8091E8008E778093E80026
:1051C0000895CF93DF9320912102222339F020917B
:1051D000080727FF03C060E222E002C068E021E088
:1051E0002093E9002FEF3091E800215035FD06C0F3
:1051F00035ED3A95F1F700002111F5CF2091E80047
:1052000025FF1DC0EC0180912102811105C040E005
:1052100050E068E070E003C070E040E050E0CE0194
:105220000E94B42A8091E8008E778093E80080E2A3
:10523000FE01A8E0B5E001900D928A95E1F7DF91BB
:10524000CF91089580910D07811109C00E94452CCE
:105250000E94A22C8091E20084608093E200089575
:1052600010920D070895089508950C94D72442E0F4
:1052700061EC81E00E94BE2B42E261EC82E00C9482
:10528000BE2B80911007833009F460C030F4813068
:1052900071F0823009F499C008958A3009F485C00C
:1052A0008B3009F46BC0893009F0A7C020C0809111
:1052B0000F07813A09F0A1C08091E800877F8093B1
:1052C000E8008091130790911407892B21F460E284
:1052D00088E095E003C060E080E090E070E00E942C
:1052E000FF2A8091E8008B778093E80008958091F1
:1052F0000F07813209F081C0809113079091140744
:10530000029708F07AC08091E800877F8093E800D8
:105310008091E80082FD05C080910E078111F8CFD1
:105320006CC02091F3008091F20090E0922B0297E4
:1053300029F48091F1008B7F813021F48091F1007C
:10534000809328058091E8008B7753C080910F07E8
:10535000813A09F052C08091130790911407892B6C
:1053600009F04BC08091E800877F8093E80080912E
:10537000E80080FFFCCF8091210236C080910F07AA
:105380008132D9F58091130790911407892BA9F5E3
:105390008091E800877F8093E8000E94F32B809142
:1053A0001107809321020C942A1D80910F078132EE
:1053B00021F58091E800877F8093E8000E94F32B1D
:1053C0008091120780932905089580910F07813AF3
:1053D000A1F48091E800877F8093E8008091E80045
:1053E00080FFFCCF809129058093F1008091E80037
:1053F0008E778093E8000C94F32B089584B7877F11
:1054000084BF0FB6F894A89580916000886180935E
:105410006000109260000FBE90E080E80FB6F89434
:1054200080936100909361000FBE0E9410190E944A
:10543000452C0E94A22C8091E20084608093E200BF
:1054400078940E94372F0E941A1987E192E00E94F7
:105450008E1880910E07853069F40E94A7248091F0
:105460000C078823B1F30E949024882391F30E94B3
:105470009E2AEFCF0E942219ECCF0C943F2A292FAD
:10548000332723303105C9F060F42130310581F034
:105490002230310509F04AC08BE390E02CE134E082
:1054A00049C02132310511F12232310579F13EC076
:1054B00082E190E027E534E03DC0992781309105F5
:1054C00061F040F08230910559F0039779F5E0EFF3
:1054D000F3E008C0E8E1F4E005C0E8E0F4E002C071
:1054E000E6EFF3E0849190E09F0124C0611571051F
:1054F00041F061307105D1F489E090E027E434E0B7
:1055000019C089E090E02EE234E014C06115710505
:1055100041F06130710551F48CEB90E029E634E004
:1055200009C080E490E025E235E004C080E090E02E
:1055300020E030E0FA0131832083089580E189BDC5
:1055400082E189BD09B400FEFDCF8091D8008F7D36
:105550008093D8008091E00082608093E000809189
:10556000E00081FDFCCF0895CF92DF92EF92FF9291
:105570000F931F93CF93DF93EC018B017A010E946D
:10558000122C811133C0E114F10439F0F70180814C
:105590009181081B190BC80FD91FC12CD12C0115E3
:1055A000110519F18091E80085FD16C08091E80091
:1055B0008E778093E800E114F10449F0F7018081CF
:1055C0009181C80ED91ED182C08285E00FC00E9491
:1055D000122C882321F30AC089918093F100015095
:1055E0001109FFEFCF1ADF0ADACF80E0DF91CF9108
:1055F0001F910F91FF90EF90DF90CF900895209131
:105600001507309116072617370748F06115710501
:1056100039F42091E8002E772093E80001C0B90109
:10562000FC0120E06115710579F180910E07882356
:10563000F1F18530F1F18091E80083FD3CC080916B
:10564000E80082FD2EC08091E80080FFEBCF209122
:10565000F3008091F20090E0922B6115710551F0FA
:105660008830910538F421912093F100615071093F
:105670000196F3CF21E0089709F020E08091E8003F
:105680008E778093E800CECF2111CFCF0AC08091D2
:105690000E07882361F0853061F08091E80083FD7A
:1056A0000AC08091E80082FFF2CF80E0089582E096
:1056B000089583E0089581E00895209115073091C1
:1056C00016072617370748F06115710539F4209140
:1056D000E8002E772093E80001C0B901FC0120E02A
:1056E0006115710591F180910E07882309F440C07E
:1056F000853009F43FC08091E80083FD3DC0809172
:10570000E80082FD2FC08091E80080FFE9CF209162
:10571000F3008091F20090E0922B6115710559F031
:105720008830910540F424912093F1003196615026
:1057300071090196F2CF21E0089709F020E08091ED
:10574000E8008E778093E800CBCF2111CCCF0AC040
:1057500080910E07882361F0853061F08091E80028
:1057600083FD0AC08091E80082FFF2CF80E00895B7
:1057700082E0089583E0089581E00895982F97309E
:1057800068F59093E900981739F07091EC0020913A
:10579000ED005091F00003C0242F762F50E021FD42
:1057A00002C09F5FECCF3091EB003E7F3093EB0067
:1057B0003091ED003D7F3093ED003091EB00316092
:1057C0003093EB007093EC002093ED005093F000C9
:1057D0002091EE0027FDE5CF80E008958F70809343
:1057E000E90081E0089580910F0787FF11C0809143
:1057F000E80082FD05C080910E078111F8CF11C02D
:105800008091E8008B770BC080910E07882349F0C8
:105810008091E80080FFF8CF8091E8008E77809338
:10582000E80008952091E4003091E50095E640916C
:10583000EC00842F817040FF23C08091E80080FD40
:105840001DC080910E07882399F0853099F08091D2
:10585000EB0085FD11C04091E4005091E500241754
:10586000350729F3915011F09A01E1CF84E00895B2
:1058700082E0089583E0089581E0089580E008952E
:105880004091E80042FFDDCF08950E94B32C0E94B2
:10589000BB2CE0EEF0E0808181608083E8EDF0E0F9
:1058A00080818F77808319BCA7EDB0E08C918E7FCB
:1058B0008C9380818F7E808310920D0708950F93C3
:1058C0001F93CF93DF930E94B32C0E94BB2CC8ED93
:1058D000D0E088818F7788838881806888838881F9
:1058E0008F7D888319BC10920E0710920A071092C0
:1058F0000C0710920B0700EE10E0F80180818B7FFF
:10590000808388818160888342E060E080E00E943B
:10591000BE2BE1EEF0E080818E7F8083E2EEF0E04E
:10592000808181608083808188608083F8018081AC
:105930008E7F8083888180618883DF91CF911F91E2
:105940000F910895E8EDF0E080818F7E8083E7ED90
:10595000F0E080818160808384E082BF81E0809379
:105960000D070C945F2CE8EDF0E080818E7F808342
:105970001092E20008951092DA001092E10008956A
:105980001F920F920FB60F9211242F933F934F93B4
:105990005F936F937F938F939F93AF93BF93EF9397
:1059A000FF938091E10082FF0BC08091E20082FFB3
:1059B00007C08091E1008B7F8093E1000E94362F29
:1059C0008091DA0080FF1FC08091D80080FF1BC04B
:1059D0008091DA008E7F8093DA008091D90080FF79
:1059E0000DC080E189BD82E189BD09B400FEFDCF13
:1059F00081E080930E070E94222905C019BC1092F5
:105A00000E070E9430298091E10080FF19C080912B
:105A1000E20080FF15C08091E2008E7F8093E2005B
:105A20008091E20080618093E2008091D8008062E2
:105A30008093D80019BC85E080930E070E9434291A
:105A40008091E10084FF30C08091E20084FF2CC08F
:105A500080E189BD82E189BD09B400FEFDCF80915E
:105A6000D8008F7D8093D8008091E1008F7E809355
:105A7000E1008091E2008F7E8093E2008091E2005D
:105A800081608093E20080910A07882311F084E00E
:105A900007C08091E30087FD02C081E001C083E080
:105AA00080930E070E9435298091E10083FF29C071
:105AB0008091E20083FF25C08091E100877F809381
:105AC000E10082E080930E0710920A078091E100C6
:105AD0008E7F8093E1008091E2008E7F8093E200D0
