:100000000C942D010C9474010C9474010C947401E3
:100010000C9474010C9474010C9474010C9474018C
:100020000C9474010C9474010C9429190C94FB1910
:100030000C944C140C9474010C9474010C94740181
:100040000C9474010C9474010C9474010C9474015C
:100050000C9474010C9499140C9474010C94740114
:100060000C9474010C9474010C9474010C9474013C
:100070000C9474010C9474010C9474010C9474012C
:100080000C9474010C9474010C9474010C9474011C
:100090000C9474010C9474010C9474010C9474010C
:1000A0000C9474010C9474010C947401DA09DA094B
:1000B0000C0A0C0A590A8D0B8D0B8D0B770A0C0B51
:1000C0001D0B1D0B7D0B8D0B8D0B860B290C290C2D
:1000D0003B0C3B0C320C3B0C3B0C3B0C290C290C15
:1000E000370C3B0C3B0C370C681A8F1A871B8F1A86
:1000F000871BDB1AFE1A871B551B641B6B00015103
:100100006A00A9006900AA006800A800DE5C01007E
:100110006E0071006D0070006C006F000403300011
:10012000000016034C00610075006E00630068005B
:100130002000500061006400000020034D006100B9
:1001400070006C006500200043006F006D007000BF
:100150007500740069006E00670000000403090464
:1001600009023B00020100A0FA090400000103019A
:100170000100092111010001224000070581030847
:10018000000A090401000103000000092111010017
:1001900001226D000705820320000A1201100100F0
:1001A000000008371307600100010203010501097F
:1001B00080A101850319012AB700150126B7009512
:1001C0000175108100C0050C0901A1018504190108
:1001D0002AA002150126A002950175108100C00514
:1001E000010906A1018505050719E029E715002584
:1001F000019508750181020507190029EF150025F1
:100200000195F0750181020508190129059505750B
:10021000019102950175039101C005010906A10133
:10022000050719E029E715002501950875018102E8
:100230009501750881010507190029FF150026FFA2
:1002400000950675088100050819012905950575B1
:10025000019102950175039101C011241FBECFEFDA
:10026000DAE0DEBFCDBF04B603FE27C080913102C5
:1002700090913202A0913302B09134028730904BBA
:10028000A740B04BD1F4109231021092320210927A
:1002900033021092340214BE84B7877F84BF0FB636
:1002A000F894A89580916000886180936000109216
:1002B00060000FBEE0E0F8E3099511E0A0E0B1E0D6
:1002C000EAE0F8E302C005900D92A437B107D9F730
:1002D00022E0A4E7B1E001C01D92A133B207E1F72B
:1002E0000E9458160C94031C0C9400000C944604B5
:1002F00081E0089581E008950C947A0108950C94AA
:100300007E011F93CF93DF9300D000D01F92CDB713
:10031000DEB749835A836B833091860189819A8144
:10032000311114C0662359F0222349F00E945E1156
:10033000182F682F89819A810E940B1103C00E9497
:100340003411182F69817A81812F04C00E945E11B7
:1003500069817A810F900F900F900F900F90DF912D
:10036000CF911F910C943302FC01262F40815181C3
:100370006281738184810C948101CF93DF93EC01BE
:1003800060E00E94B401BE01DF91CF910C947F0127
:100390000E949012811102C00E9430130C947601C9
:1003A0000C94440408950C94D20181E008950C94B7
:1003B000D501CF93C82F0E94D3018C2F0E94D70163
:1003C000CF91089508950E94170C0E94E2012FEF2B
:1003D00084E39CE0215080409040E1F700C00000A1
:1003E0000C94BF140F931F93CF93DF93EC0161E044
:1003F0000E94B4018C01BE010E947C01882349F156
:10040000BE01C8010E94A505882319F1BE01C801DB
:100410000E94E6058823E9F0BE01C8010E94110789
:100420008823B9F08A81882369F001158CE51807C3
:1004300031F00E3D1C4531F40E9430130AC00E9479
:10044000E30107C0CE01DF91CF911F910F910C9472
:10045000780180E0DF91CF911F910F91089580E0A6
:1004600090E008950895E72FF0E094E0899FE00D73
:10047000F11D1124EE0FFF1FE60FF11DEE0FFF1F00
:10048000E450FF4F859194910895880F991FFC01C6
:10049000E45EFE4F859194910895CF93DF930E947F
:1004A00033020E945F03EC018115904508F043C0C0
:1004B000C11580E4D80708F0CBC0C03ED10528F5AF
:1004C000C03CD10508F0B3C0C83AD10578F4C53AAC
:1004D000D10508F0A4C0C130D10509F4ECC008F47E
:1004E000E8C0C430D10508F0E6C0E3C0CF3BD10579
:1004F00008F0DFC0C85AD0E0CC0FDD1FC35FDE4F6D
:100500000990D881C02DD464D6C0C11590E2D90716
:1005100050F4C11521E0D20708F0CDC0C83ED10586
:1005200008F4C9C0C6C0C11580E3D80708F086C06A
:10053000CE019F707FC0C11595E5D90708F043C073
:10054000C11524E5D20708F09AC0C11582E5D80785
:1005500008F5C11591E5D90708F07DC0CE0174E01A
:10056000969587957A95E1F783709C2F937021E09B
:1005700030E002C0220F331F9A95E2F73C68382B17
:10058000CF70C695C69580E2C89FE0011124C22BAA
:10059000D32B91C09E01237033278C2F869586958F
:1005A000C115D34508F05CC0C1E0D0E002C0CC0F5B
:1005B000DD1F2A95E2F720E2829FC0011124C82B9B
:1005C000D92BDC6878C0C11529E5D207A0F4C11584
:1005D00088E5D80708F058C0C11596E5D90708F096
:1005E00068C08C2F0E94F3038F71C82FD0E0DC2FDE
:1005F000CC27D06260C0C1152AE5D20708F449C0F3
:10060000CE0190568115904208F053C08D2F8F7106
:100610000E94F303DD27D0628F71D82B4CC0C55ADE
:10062000D0E0C55CDE4FC881D0E0D06444C0CE01CC
:10063000805C91090E944502EC013DC0CE019927E2
:10064000D3FF03C0EC01D86C36C0EC01D06C33C0D2
:10065000DF70D06A30C0DC2FCC27C16FD06A2BC0CE
:10066000C1E0D0E002C0CC0FDD1F2A95E2F720E206
:10067000829FC0011124C82BD92BDA681CC0DC2F43
:10068000CC27C46FD06A17C0DC2FCC27C06FD06ACC
:1006900012C08C2F8F700E94F30394E0D695C795FB
:1006A0009A95E1F7CF70D0E0DC2FCC27D069C82B2A
:1006B00002C0C0E0D0E0CE01DF91CF910895823832
:1006C000910569F1B0F48133910509F46DC048F4E6
:1006D0008932910509F463C08A32910509F469C031
:1006E00008958533910509F455C089339105B9F012
:1006F0000895833E910569F138F4803E9105B1F08B
:10070000823E910509F10895863E9105A9F1873E43
:100710009105B9F1843E910509F064C023C0209190
:10072000220220FD4FC021FD4DC00895809122027C
:1007300080FD44C08091230280FF44C0809122024A
:1007400084FD42C083EE4DC08091220282FF38C0FA
:10075000F5CF8091220282FD33C08091230280FD7B
:1007600031C0ECCF8091230281FF32C08091220200
:1007700084FD2AC087EE35C08091220283FF26C007
:10078000F5CF8091220283FD21C08091230281FD5B
:100790001FC0ECCF8091220285FD1CC01DC080913E
:1007A000220285FD19C016C08091220286FD16C066
:1007B00017C08091220286FD13C010C089E311C0CA
:1007C00082EE0FC080EE0DC080E00BC086EE09C047
:1007D00084EE07C089E205C085E303C08AE201C058
:1007E00081E390E008959091220292FF0DC0282F9E
:1007F0002871283019F4877F846006C0282F24715F
:10080000243011F48B7F886093FF0DC0282F28714E
:10081000283119F4877E846106C0282F2471243181
:1008200011F48B7E88612091230220FF0DC0382FA8
:100830003871383019F4877F816006C0382F3171E4
:10084000313011F48E7F886021FF0DC0282F287170
:10085000283119F4877E816106C0282F217121314A
:1008600011F48E7E886194FD877E0895E82FF0E074
:10087000E65EFD4F80810895089580EA8A95F1F73C
:10088000089508950C9441040C9442040C9441047E
:10089000AEE3B1E041E050E08D91E82FE295EF70DA
:1008A000F0E021A18F70BA0102C0660F771F8A9510
:1008B000E2F7CB01962F9095922391A392A1892BD9
:1008C00082A371E0A234B70739F752985A9A8798F1
:1008D0008F9A1092160210921A021092170210921A
:1008E0001B021092180210921C0210921902109210
:1008F0001D0284E00E94FA040C94C8014F925F929A
:100900006F927F928F929F92AF92BF92CF92DF921F
:10091000EF92FF920F931F93CF93DF932EE3822EDC
:1009200021E0922E06E112E03AE1632E32E0732ECE
:10093000512CAA24A394B12CF40181914F01C82F0A
:10094000C295CF70D0E099A18F70750101C0EE0CF7
:100950008A95EAF7892F8E2989A38AA14E2C409483
:1009600084218AA30E943D0489B182FBCC24C0F873
:10097000D12CC601F1E08F2781702FB130E0220F1A
:10098000232F221F330B232B11F492E001C090E0A0
:10099000892B99A1492249A29AA1E92AEAA2F80140
:1009A0009081981719F0808381E001C080E0582A77
:1009B0000F5F1F4F6016710609F0BECF252D44E072
:1009C0006AE172E086E192E00E94FB040E94D0019D
:1009D000852DDF91CF911F910F91FF90EF90DF90C8
:1009E000CF90BF90AF909F908F907F906F905F90CF
:1009F0004F9008950895FF920F931F93CF93DF9325
:100A00008C01F62ED72FC42F222349F081E080934A
:100A100076010E947E1490937501809374018091F9
:100A200076018823C1F080917401909175010E9434
:100A30008A14069780F0EF2DFD2FD8014C2F50E03F
:100A4000CD01801B910B841795071CF48D91819328
:100A5000F7CF10927601DF91CF911F910F91FF9008
:100A600008950F931F93CF93DF93C62FD42F122F88
:100A7000FC0182818823C9F0609379010E947E1471
:100A8000909378018093770180E28C0F883008F092
:100A900057C0C77081E001C0880FCA95EAF7DF919F
:100AA000CF911F910F910C94960980917901681351
:100AB00030C080917701909178010E948A14883C1F
:100AC000910538F500E20D0FCD17B9F080E28C0FDB
:100AD000883040F4C77081E001C0880FCA95EAF7FA
:100AE0000E949D09083028F581E09D2F977001C074
:100AF000880F9A95EAF70E949609812F0E94830930
:100B00000830F0F4D77081E001C0880FDA95EAF779
:100B10000AC080E28C0F883098F4C77081E001C071
:100B2000880FCA95EAF7DF91CF911F910F910C942E
:100B30009D09812FDF91CF911F910F910C94830913
:100B4000DF91CF911F910F9108959C01CB01233F1D
:100B50004CE53407F9F078F4283DFCE53F07B9F09F
:100B6000293D4CE5340711F1273D3C4531F526E29E
:100B700041EE61EE1EC0253FFCE53F0799F070F0A5
:100B8000263F3C45D1F427E245EE66EE12C027E24F
:100B900045EE0EC026E241EE60EE0BC027E245EEC8
:100BA00064EE07C026E241EE62EE03C028E241E0B7
:100BB00065EE0E94310580E00895FC018281882362
:100BC00019F010927901089581E00895CF93DF9391
:100BD000EC01FB018281882309F41FC1C230FCE5CE
:100BE000DF0708F41BC1C6319CE5D90738F09E0128
:100BF0002A5F3C452930310508F010C10E94A3123C
:100C00009093230280932202C031ECE5DE0709F4C1
:100C1000C3C008F041C0C8308CE5D80709F49AC0B9
:100C2000F0F4C430ECE5DE0709F487C068F4C230A4
:100C30008CE5D80709F477C0C330DC4509F0E3C080
:100C400080912202826076C0C630ECE5DE0709F4AE
:100C50006EC008F07BC08091220288606BC0CC30EF
:100C60008CE5D80709F485C068F4CA30ECE5DE07E6
:100C700009F474C008F079C00E94170C8091220218
:100C8000806858C0CE308CE5D80709F476C008F0EB
:100C90007FC0809122028BC0CB3FECE5DE0709F4D8
:100CA0004FC018F5C3318CE5D80709F47DC078F43E
:100CB000C131ECE5DE0709F473C0C231DC4509F04F
:100CC000A2C00E94170C809122028F7733C0C531D9
:100CD0008CE5D80709F472C008F486C0CA3FDC4529
:100CE00009F091C0809123023EC0CF3FFCE5DF07B1
:100CF00009F45FC058F4CD3F9CE5D90709F444C01E
:100D000008F43FC08091230282602DC0C130FDE510
:100D1000DF0709F475C008F45DC0C230DD4509F095
:100D200072C080E06EC080912202816003C0809119
:100D3000220280618093220266C08091220211C04B
:100D4000809123028260809323025DC08091220201
:100D50008062F0CF809122028064ECCF80912202E9
:100D600088608460E7CF8160EECF809122028E7F21
:100D7000E1CF809122028D7FDDCF80912202877F9B
:100D8000D9CF8091230218C0809123028D7FDBCFC1
:100D9000809122028F7ECECF809122028F7DCACF9A
:100DA000809122028F7BC6CF80912202877F8B7F2A
:100DB000C1CF809123028D7F8E7FC5CF809122028B
:100DC00082FB222720F991E0922790FB82F990FB89
:100DD00083F9B0CF80912302982F909591708E7FE8
:100DE000892B90FB81F9AFCF0E94170C80912202D2
:100DF00087FB222720F991E0922790FB87F99ACF71
:100E000081E00E94321380912202909123020E947D
:100E1000B4120E94170C80E001C081E0DF91CF91F5
:100E20000895CF93DF9386319C4541F5EB010E94F5
:100E3000DF11982F8A8120910001309101018823D0
:100E400079F09A7A81E009F480E080937A01911137
:100E500002C069E201C065E3C9010E94CD130AC066
:100E600080917A01811102C069E201C065E3C90184
:100E70000E94D8130E942D1280E001C081E0DF9112
:100E8000CF9108959093800180937F010895E09120
:100E90007F01F0918001309721F00190F081E02DE9
:100EA000099480E00895E0917F01F09180013097EE
:100EB00099F020910C01222359F02091220227FF62
:100EC00007C0DC012C9111962C93119725E02C93EF
:100ED0000280F381E02D0994089520917D013091E5
:100EE0007E012817390771F090937E0180937D0170
:100EF000E0917F01F0918001309721F00680F78129
:100F0000E02D0994089520917B0130917C012817F0
:100F1000390771F090937C0180937B01E0917F0110
:100F2000F0918001309721F00084F185E02D099443
:100F3000089585B7806885BF85B7806885BF0895A7
:100F400008950C94A0070C94A1070C94A0070C948E
:100F5000A0070E9499070E94A5070C94A30781E0AF
:100F600008950C94AF070E9475140E9448040E94D3
:100F7000D0140C94A707BF92CF92DF92EF92FF920A
:100F80000F931F93CF93DF93CDB7DEB72A970FB69A
:100F9000F894DEBF0FBECDBF0E947E040E94B10751
:100FA000811111C08FEF89838A831B820E947E1476
:100FB0008160782F9D838C8349815A816B818D81DB
:100FC0000E944E0840C022E8C22E21E0D22E00E04E
:100FD00010E0B02E802F0E943604E82EF601F1902A
:100FE0006F01F82651F18091F10181FD0E943C04CE
:100FF000F0FC06C0F1FE21C081E092E0F92E03C0B2
:1010000080E0FF24F3948E83BF82EF2081E009F417
:1010100080E088870E947E148160782F9A87898774
:101020004E815F8168858A850E944E08F801EE57DF
:10103000FE4F8081F826F08206C00F5F1F4F0430FC
:10104000110539F6AFCF0E944707909181018917AA
:10105000A9F00E944707809381012A960FB6F89461
:10106000DEBF0FBECDBFDF91CF911F910F91FF90DB
:10107000EF90DF90CF90BF900C94D9012A960FB6D5
:10108000F894DEBF0FBECDBFDF91CF911F910F91BE
:10109000FF90EF90DF90CF90BF900895CF93DF93B4
:1010A000CDB7DEB72B970FB6F894DEBF0FBECDBF1E
:1010B0004F83588769877A878B87DE01119686E090
:1010C000FD0111928A95E9F785E0FE0137960190BE
:1010D0000D928A95E1F749815A816B817C818D81DE
:1010E0009E810E94D00E2B960FB6F894DEBF0FBEE5
:1010F000CDBFDF91CF910895FC01808191810E9445
:10110000A0110895CF93882309F49CC0C82F82387A
:10111000C1F40E94470781FD95C069E380910001F9
:10112000909101010E94CD130E942D122FEF81EEAC
:1011300094E0215080409040E1F700C0000069E356
:1011400019C0833801F50E94470780FD7BC063E525
:1011500080910001909101010E94CD130E942D12F7
:101160002FEF81EE94E0215080409040E1F700C0E5
:10117000000063E580910001909101010E94D81365
:10118000CF910C942D128438C1F40E94470782FD40
:1011900059C067E480910001909101010E94CD1334
:1011A0000E942D122FEF81EE94E02150804090405C
:1011B000E1F700C0000067E4DDCF8CEF8C0F813ACF
:1011C000D0F46C2F80910001909101010E944D1389
:1011D000882349F06C2F80910001909101010E94B9
:1011E000D8130E942D126C2F809100019091010163
:1011F0000E94CD13C5CF80E28C0F883048F4C770B1
:1012000081E001C0880FCA95EAF70E94E211B8CFC9
:10121000EBE5EC0FE33040F4F0E0E059FE4F808165
:1012200090E0CF910C946D07C85AC73158F4EC2F59
:10123000F0E0EE0FFF1FEE5BFE4F80819181CF91BA
:101240000C948307CF910895882309F45BC0682F1D
:10125000823879F40E94470781FF54C069E3809186
:101260000001909101010E94CD130E942D1269E3AB
:1012700010C08338B1F40E94470780FF43C063E584
:1012800080910001909101010E94CD130E942D12C6
:1012900063E580910001909101010E94D8130C94A4
:1012A0002D12843879F40E94470782FF2BC067E42F
:1012B00080910001909101010E94CD130E942D1296
:1012C00067E4E7CF8CEF860F813A18F380E2860F50
:1012D000883048F4677081E001C0880F6A95EAF7AA
:1012E0000E94E811DCCF8BE5860F833020F480E08C
:1012F00090E00C946D07685A673120F480E090E02C
:101300000C9483070895CF93C82F0E948208C93395
:1013100049F42FEF87EE93E0215080409040E1F7B1
:1013200000C000008C2FCF910C942409882321F059
:101330000E94E2110C942D120895882321F00E943E
:10134000E8110C942D120895CF92DF92EF92FF9244
:101350000F931F93CF93DF937C01062FC72FFC01C0
:10136000158112951F70D281D1110E94FF110E9428
:10137000D811882399F0DD2389F08C2F807F803469
:1013800021F080E2800F883048F082E00E947712DE
:101390000E94D81191E0D82ED92601C0D12CCC2E94
:1013A000C2948FE0C8228C2D90E0FC01EA5AFF4FD6
:1013B0000C94BB1B8C2F807FCF70882311F0C295BB
:1013C000C07FDD2399F0CC2309F482C180E2800F35
:1013D000883010F0011104C08C2F0E94E21103C06C
:1013E0008C2F0E94F2110E942D1272C1802F0E9438
:1013F0002409CC2309F491C180E2800F883010F0D9
:10140000011104C08C2F0E94E81103C08C2F0E9490
:10141000F8110E942D1281C18C2F807FCF708032F5
:1014200011F0C295C07F002319F00130C9F022C02D
:10143000DD2371F0112341F0113031F40E941212BA
:101440008C2B0E941A1269C10E9412128C2B1DC093
:10145000112319F0113009F460C10E94231225C034
:10146000DD2321F0163008F058C10EC0153008F009
:1014700054C11BC0DD2361F0112331F0F7018581D8
:1014800080FF26C18F7085838C2F0E94960945C1ED
:10149000112359F0093309F02CC1FFEF27EE83E047
:1014A000F15020408040E1F722C18C2F0E949D091D
:1014B00034C18C2F86958695837019F0813061F048
:1014C0002CC1DD2321F0802F9C2F937002C080E07F
:1014D00090E00E946D0729C1DD2321F0802F9C2F11
:1014E000937002C080E090E00E9483071EC18C2FA1
:1014F000837009F045C0D11114C1402F4295469523
:101500004770440F440F602F6F70862F90E0A0E06B
:10151000B0E0042E04C0880F991FAA1FBB1F0A94B5
:10152000D2F704FF10C00FE010E020E030E004C06C
:10153000000F111F221F331F4A95D2F700951095F7
:101540002095309503C000E010E09801C695C6953F
:10155000C370BC01CD01602B712B822B932BC23049
:1015600049F058F4C13019F00E942110DAC00E94ED
:101570000F10D7C00E943310D4C00E940D10D1C0EC
:10158000DD2319F08C2F817001C08695882309F422
:10159000C8C0402F429546954770440F440F602FB6
:1015A0006F70862F90E0A0E0B0E0042E04C0880F9A
:1015B000991FAA1FBB1F0A94D2F704FF10C00FE0A7
:1015C00010E020E030E004C0000F111F221F331F85
:1015D0004A95D2F7009510952095309503C000E00C
:1015E00010E09801C695C695C370BC01CD01602B73
:1015F000712B822B932BC23049F058F4C13019F073
:101600000E94E6108EC00E94D4108BC00E94F81079
:1016100088C00E94471085C0CF70DD2339F08C2F21
:101620000E946D10802F0E9496097BC0802F0E941F
:101630009D098C2F0E948E1074C0023F01F128F486
:10164000003F41F0013FA1F03FC0033FF9F0043FEC
:1016500039F13AC0DD2341F0153008F05EC08C2F1F
:101660008F710E94B31059C0163008F056C0F7CFE2
:10167000DD2339F08C2F8F710E946D104EC0DD2359
:10168000C9F38C2F8F710E948E1047C0DD2329F083
:101690008C2F8F710E94581040C00E9453103DC083
:1016A000DD2349F0CF718C2F0E946D1063E08C2FE9
:1016B0000E94621232C081E00E947712123068F1FB
:1016C00082E00E94771229C0DD2331F0112391F2CC
:1016D000802F0E94820821C0112399F2093349F416
:1016E0009FEFE7EEF3E09150E040F040E1F700C0FB
:1016F0000000802F0E94240910C04C2F4F70602FD3
:10170000C7010E942F020E947E0F0FC04C2F4F7006
:10171000602FC7010E94320208C088EF8C0D843010
:1017200020F40E9447070E94D901DD20C9F00E94E1
:10173000D41180FD15C0F70112820E94CE110E94C3
:101740006D10C7010E94D10B0E94CE11DF91CF9185
:101750001F910F91FF90EF90DF90CF900C948E101F
:10176000DF91CF911F910F91FF90EF90DF90CF907D
:1017700008950F931F93CF93DF93EC0168817981D4
:101780008A810E94AB118C010E940A110E94FB0FFA
:10179000B801CE010E94A409DF91CF911F910F9152
:1017A0000895CF93DF93EC01988189812B813C814F
:1017B000232B31F08F3F31F481E09F3F19F403C0B8
:1017C00081E001C080E080FD19C0CE010E94F201DD
:1017D00081110CC00E94D811882381F08A8188234E
:1017E00069F082E0DF91CF910C947712CE010E94D4
:1017F000B90BCE01DF91CF910C94BD01DF91CF9158
:1018000008950E94FF110E940F120E942D1280E085
:1018100090E00E946D0780E090E00C948307809137
:101820000001909101010E94E3130C94010C0E94AD
:10183000EF110C940F0CE92FE295EF704E2F50E052
:10184000FA013297EE30F105B0F4EA59FF4F0C94EB
:10185000BB1B803F91F018F4883E68F40EC0843FB3
:1018600051F40BC0883E48F0813F29F406C093FB39
:10187000882780F9089580E0089581E008950E9406
:10188000A0110E941B0C0895CF93DF9300D000D0CD
:101890001F92CDB7DEB70F900F900F900F900F9063
:1018A000DF91CF910895CF93DF9300D000D000D087
:1018B000CDB7DEB726960FB6F894DEBF0FBECDBF0C
:1018C000DF91CF9108951F93CF93DF93C09187014C
:1018D00016E080918801C81799F0D0E01C9FF001B4
:1018E0001D9FF00D1124E757FE4F40815181628109
:1018F0007381848195810E94530C2196C770E9CF32
:10190000DF91CF911F9108954091B9015091BA0193
:101910006091BB017091BC018091BD019091BE01AD
:101920000C94530C0F931F93CF93DF938091BE01C0
:1019300082958F7009F05DC08091BB01882309F406
:1019400058C080918701109188016091B901709110
:10195000BA01C091BC01D091BD0191E06F3F09F087
:1019600090E0292F06E0811709F443C0209721F069
:101970007F3F21F030E003C031E001C0322F90E022
:1019800030FD34C0089FF001099FF00D1124DF01E4
:10199000A757BE4F11963C911197371327C03C9122
:1019A000361324C012963C91129731111FC0139622
:1019B0004D915C9114974C1B5D0B483C5105B0F464
:1019C0008091BE018F7080618093BE01E257FE4F0F
:1019D00080818F708061808389EB91E00E94D10BC0
:1019E000DF91CF911F910F910C94630C019687703A
:1019F000BACFDF91CF911F910F9108959F92AF922F
:101A0000BF92CF92DF92EF92FF920F931F93CF93EB
:101A1000DF93CDB7DEB761970FB6F894DEBF0FBE88
:101A2000CDBF8C0185E0F801DE011D9601900D927D
:101A30008A95E1F7F80140815181E2809091B901E6
:101A40006091BA012091BC013091BD012115310591
:101A500031F06F3F31F481E09F3F19F403C081E022
:101A600001C080E0F82FF1709F2E80FD46C1F80183
:101A7000A380B48089EBC82E81E0D82EF090BB0102
:101A8000F501E21BF30BFF2009F4DFC08091BE01DA
:101A9000E83CF10508F09BC0282F207F09F052C0D8
:101AA000561313C0491311C0FE2CE1100EC08F70E5
:101AB00080618093BE010E94840CC6010E94D10BFC
:101AC0008091BE01F801858358C1AB2831F05F3F9A
:101AD00031F481E04F3F19F403C081E001C080E0A0
:101AE00080FD03C081E08E2502C080E090E0F82FE9
:101AF000F170FF2E80FF1CC080918701209188012A
:101B000036E0821709F417C190E0389FF001399F41
:101B1000F00D1124E757FE4F6181561306C0608116
:101B2000461303C06281E61203C001968770E9CFB5
:101B3000FE2CEE2009F421C18091BE0181608093CA
:101B4000BE015AC0561306C0491304C0E11002C0BA
:101B5000F8019FC04D875E878D859E850E943F0C52
:101B6000882379F1EE2069F12091BE01822F8295C0
:101B70008F7090E0029774F08091B9019091BA0152
:101B800098878F831986BB86AA862C87CE010796F5
:101B90000E94D10B86E0F801A9EBB1E001900D9213
:101BA0008A95E1F70E94920C0E94840C0DC0561792
:101BB00029F14D875E878D859E850E943F0C81119E
:101BC0002CC0C8010E94D10BFF24F394D6C0282F4B
:101BD000207F69F77A2DB98AA88A6E2D89890E949B
:101BE000440C89EB91E00E94D10B86E0F601119242
:101BF0008A95E9F70E94840CF12CBFC04913D9CF14
:101C0000E110D7CFF8018583C8010E94D10B86E08F
:101C1000F60111928A95E9F7B0C0EE2091F2209179
:101C2000BE01822F82958F7090E002970CF4B2CFA4
:101C30008091B9019091BA019A8389831B82BD82F8
:101C4000AC822E83CE010196A3CFE83CF10508F0CB
:101C500047C0FE2CEE2009F4B4CF561330C0491310
:101C60002EC02091BE0120FD21C0822F82958F7051
:101C7000482F50E041155105C9F0F80125834F3038
:101C8000510541F08F5F982F9295907F822F8F7032
:101C9000892B8583C8010E94D10B86E0F801A9EB4E
:101CA000B1E001900D928A95E1F742C086E0F8011B
:101CB000A9EBB1E001900D928A95E1F75EC04D87E6
:101CC0005E878D859E850E943F0C811163CF809138
:101CD000BE0181608093BE01C8010E94D10B4DC03E
:101CE0007A2DB98AA88A6E2D89890E94440C86E0D3
:101CF000F60111928A95E9F71BC0EE2009F461CF35
:101D00004D875E878D859E850E943F0CF82E882327
:101D100009F457CF86E0F801A9EBB1E001900D92EC
:101D20008A95E1F789EB91E00E947C080E94920C71
:101D30000E94840C22C04D875E878D859E850E94FF
:101D4000A011292F22952F70223028F49F7039F08E
:101D5000811105C00BC0243028F49F7049F4805EC7
:101D6000883020F0C8010E94D10B9F2CF92C05C0AF
:101D7000F8019581907F99F7F9CF8F2D61960FB675
:101D8000F894DEBF0FBECDBFDF91CF911F910F91B1
:101D9000FF90EF90DF90CF90BF90AF909F9008950D
:101DA0001F93CF93DF93CDB7DEB72C970FB6F89480
:101DB000DEBF0FBECDBF4F83588769877A878B8779
:101DC0009C87CE0107960E94FE0C8823D1F09F814C
:101DD00088852A853B85232B31F08F3F31F481E0C4
:101DE0009F3F19F403C081E001C080E080FD47C03F
:101DF0004F81588569857A858B859C850E94530C17
:101E00003EC086E0FE013796DE01119601900D92EC
:101E10008A95E1F7FF81E8856A857B856115710503
:101E200031F0EF3F31F481E0FF3F19F403C081E06E
:101E300001C080E080FD23C02091880130E0C9010D
:101E40000196877099274091870150E08417950784
:101E5000F1F1F983EA837D836C8396E0929FD00150
:101E6000939FB00D1124A757BE4FFE0131960190EC
:101E70000D929A95E1F7809388010E94630C16E019
:101E80008091870190918801891771F1189FC00195
:101E9000112487579E4F0E94FE0C882329F1E09160
:101EA00087011E9FF0011124E757FE4F40815181A9
:101EB00062817381848195810E94530C8091870196
:101EC00090E001968770992780938701D9CF0E946F
:101ED000170C1092880110928701E9EBF1E086E07F
:101EE000DF011D928A95E9F72C960FB6F894DEBFB4
:101EF0000FBECDBFDF91CF911F910895EF92FF925A
:101F00000F931F93CF93DF938C01892B09F46CC03F
:101F1000F12CEE24E394E8012196F80184918437B2
:101F200040F4843008F051C0813081F0823019F1E2
:101F30005BC0853709F444C0A8F19CE7980F90373F
:101F400008F052C08F770E94240941C00E5F1F4FD6
:101F5000FE01849190E2980F983050F48770FE2D26
:101F600001C0FF0F8A95EAF78F2F0E94021214C05A
:101F70000E9482082DC00E5F1F4FFE01849190E2E7
:101F8000980F983060F48770FE2D01C0FF0F8A957E
:101F9000EAF78F2F0E9408120E942D1219C00E948A
:101FA000240916C00E5F1F4FFE01C491CC2381F09F
:101FB0008FE99FE00197F1F700C00000C150F6CF14
:101FC0000E5F1F4FFE01F49003C00E9482088E0135
:101FD0008F2D882309F49FCFEFE9FFE03197F1F7C8
:101FE00000C000008150F5CFDF91CF911F910F917C
:101FF000FF90EF900895089508950C94FC0F0C94B1
:10200000FD0F0E94FF0F6093C8017093C901809378
:10201000CA019093CB010C94010C0C9401100F9306
:102020001F930091C8011091C9012091CA013091FC
:10203000CB01602B712B822B932B1F910F910C9452
:1020400001100F931F930091C8011091C9012091B5
:10205000CA013091CB0160237123822393231F9106
:102060000F910C9401100F931F930091C8011091D0
:10207000C9012091CA013091CB01602771278227C5
:1020800093271F910F910C9401100C94FC0F0E9448
:1020900045106093C4017093C5018093C60190936D
:1020A000C7010C94010C60E070E0CB010C94471068
:1020B0000F931F9341E050E060E070E08A019B01C4
:1020C00004C0000F111F221F331F8A95D2F7C901C8
:1020D000B8011F910F910C9447100F931F9341E08B
:1020E00050E060E070E004C0440F551F661F771F8A
:1020F0008A95D2F78091C4019091C501A091C60143
:10210000B091C7018A019B01082B192B2A2B3B2B6D
:10211000C901B8011F910F910C9447100F931F93A1
:1021200041E050E060E070E004C0440F551F661FBE
:10213000771F8A95D2F7409550956095709580915C
:10214000C4019091C501A091C601B091C7018A0157
:102150009B01082319232A233B23C901B8011F919E
:102160000F910C9447100F931F9341E050E060E0F3
:1021700070E004C0440F551F661F771F8A95D2F781
:102180008091C4019091C501A091C601B091C70191
:102190008A019B01082719272A273B27C901B80173
:1021A0001F910F910C9447100F931F930091C4013E
:1021B0001091C5012091C6013091C701602B712B90
:1021C000822B932B1F910F910C9447100F931F9309
:1021D0000091C4011091C5012091C6013091C70141
:1021E00060237123822393231F910F910C94471036
:1021F0000F931F930091C4011091C5012091C60156
:102200003091C70160277127822793271F910F9173
:102210000C9447100895990F890FE82FE695E695DD
:10222000E695877051E001C0550F8A95EAF785E081
:10223000E89FF0011124E154FE4F20E030E070E00F
:102240004081CB01022E02C0969587950A94E2F751
:102250008170819584278523842781932F5F3F4F49
:102260002530310569F70895990F890F682F669514
:1022700066956695982F977085E0689FB001112448
:1022800040E050E080E0FB01E40FF51FE154FE4F19
:10229000208130E0092E02C0369527950A94E2F796
:1022A00021703327042E01C0220F0A94EAF7822BF3
:1022B0004F5F5F4F4530510531F70895BF92CF9280
:1022C000DF92EF92FF920F931F93CF93DF938C01D6
:1022D000C090C401D090C501E090C601F090C70144
:1022E0008091C8019091C901A091CA01B091CB0120
:1022F000C82AD92AEA2AFB2ACFE1D0E0D701C601B1
:102300000C2E04C0B695A795979587950A94D2F799
:1023100080FD04C0219790F7B12C07C0BC2EB801F6
:102320008C2F0E944D020197A9F38B2DDF91CF9145
:102330001F910F91FF90EF90DF90CF90BF90089585
:10234000CF93DF93EC010E945E11BE010E944D020B
:10235000DF91CF9108951F93CF93DF93EB0190917D
:102360008601992321F0CB010E94A01113C088237C
:1023700049F0CB010E945E11182F682FCE010E94F8
:102380000B1104C0CB010E943411182FBE01812F04
:102390000E944D02DF91CF911F9108958091CC0151
:1023A00085958595859508958091CC0187700895D0
:1023B0009091CC01977081E009F480E008958091BC
:1023C000F00108959091F001892B8093F001089518
:1023D00080959091F00189238093F00108951092E7
:1023E000F00108959091EF01892B8093EF010895FA
:1023F00080959091EF0189238093EF0108951092C9
:10240000EF0108959091EE01892B8093EE010895DC
:1024100080959091EE0189238093EE0108951092AA
:10242000EE0108958091CD01089508950C94151240
:102430000C9416129091CD01981721F08093CD0144
:102440000C94181208958091CD01882329F01092E0
:10245000CD0180E00C9418120895E0910001F091F4
:1024600001018091F0018083E0910001F091010170
:1024700090818091EF01892B8083E0910001F091A0
:10248000010190818091EE01892B80838091CD01A3
:10249000882381F0E0910001F09101019081892B66
:1024A000808380910001909101010E943713811176
:1024B0000E94231280910001909101010C94530716
:1024C0000C94151298E0899F90011124262B2093DB
:1024D000CC010E946D108091CC01859585958595E4
:1024E0000C9460121092CC0180E00C946012209148
:1024F000CC01809582238093CC01982F977079F43A
:1025000030E0482F082E000C550B2417350739F002
:102510008595859585950E948E100C94721208956C
:1025200080E090E00E94C91B21E08C3E9E4F09F0A4
:1025300020E0822F089582E090E00C94C11B83E09C
:1025400090E00C94C11BCF9384E090E00E94C11BEB
:10255000C82F81E290E00E94C11B2C2F30E0A9011E
:10256000582BCA01CF910895CF93C92F682F84E0CB
:1025700090E00E94CF1B6C2F81E290E0CF910C94F1
:10258000CF1BAB01BC018FE090E00C94E11BAB01D1
:10259000BC0183E190E00C94E11B60E070E0CB01B2
:1025A0000C94C71260E070E0CB010E94C1120C9441
:1025B000CD126CEE7EEF80E090E00E94ED1B60E0BB
:1025C00082E090E00E94CF1B60E083E090E00E94F8
:1025D000CF1B1092C8011092C9011092CA0110922B
:1025E000CB0160E084E090E00E94CF1B60E081E2DC
:1025F00090E00E94CF1B60E085E090E00E94CF1B3E
:1026000060E086E090E00E94CF1B6FEF87E090E0F3
:102610000E94CF1B40E050E0BA0188E090E00E94A9
:10262000E11B60E08DE090E00E94CF1B40E050E0B5
:10263000BA0188E190E00E94E11B60E087E190E050
:102640000E94CF1B40E050E0BA018CE190E00E9474
:10265000E11B60E080E290E00E94CF1B0C94D2125C
:102660000C94D912682F8EE090E00C94CF1BFC01E3
:10267000329680910C01882331F08091220287FFED
:1026800002C09EE101C096E080E0915028F02191C7
:102690002223D9F38F5FF9CF0895662351F120915A
:1026A0000C012223E9F02091220227FF19C0462FB6
:1026B0004695469546954E31E0F4677021E030E04E
:1026C00002C0220F331F6A95E2F7FC01E40FF11DEF
:1026D000828190E02823392381E0232B69F409C00B
:1026E000FC01329608962191621729F0E817F90744
:1026F000D1F780E0089581E008959C01FC013296B5
:102700009FEF80E04191461789F09F3F19F44111F6
:1027100001C0982F8F5F8630A9F79F3F39F0F901EC
:10272000E90FF11D97FDFA956283089508959C01C4
:102730002A5F3F4FFC014281461301C0128201967D
:1027400082179307B9F70895262F26952695269583
:102750002E3168F4FC01E20FF11D677021E030E0DA
:1027600001C0220F6A95EAF78281282B22830895FF
:10277000262F2695269526952E3170F4FC01E20F22
:10278000F11D677021E030E001C0220F6A95EAF781
:102790002095828128232283089520910C012223F1
:1027A00029F02091220227FD0C94A4130C947D1390
:1027B00020910C01222329F02091220227FD0C9464
:1027C000B8130C94971320910C01FC01329622232C
:1027D00031F08091220287FF02C08EE101C086E0C5
:1027E000DF011D928A95E9F7089508950C94F51379
:1027F0000C94F513CF930E94F8130E947E040E945C
:10280000F613C0E08C2F0E943604811104C0CF5F04
:10281000C430C1F701C081E0CF9108950C94F51345
:102820000C940E140E94101480912802843049F1F7
:102830001092F20120E488E190E00FB6F894A89598
:10284000809360000FBE2093600080E00E94D90159
:102850000E94101483B7817F846083BF83B7816037
:1028600083BF7894889583B78E7F83BF0FB6F89423
:10287000A89580916000886180936000109260004C
:102880000FBE08950C94F5130E94170C0E94470781
:102890000E94D9010C9442141F920F920FB60F920E
:1028A00011248F939F93AF93BF938091F201811175
:1028B00013C080911E0290911F02A0912002B0913E
:1028C00021024196A11DB11D80931E0290931F020B
:1028D000A0932002B0932102BF91AF919F918F915D
:1028E0000F900FBE0F901F90189582E084BD93E06B
:1028F00095BD9AEF97BD80936E0008952FB7F89419
:1029000080911E0290911F02A0912002B09121029D
:102910002FBF08959C014FB7F89480911E029091AB
:102920001F02A0912002B09121024FBF821B930B86
:10293000089578941F920F920FB60F9211248F93DF
:102940009F93AF93BF9380911E0290911F02A0911D
:102950002002B09121020196A11DB11D80931E029B
:1029600090931F02A0932002B0932102BF91AF91D8
:102970009F918F910F900FBE0F901F90189587E732
:1029800097E790930108809300089AE088E10FB6DA
:10299000F894A895809360000FBE90936000FFCFDD
:1029A0000E949012811102C00E9430130E949B125B
:1029B0008093F1010E94A31290932302809322023C
:1029C0000E949F12682F70E080E090E00C940D1040
:1029D0008091130208950895CF93DF9300D01F9242
:1029E000CDB7DEB790912802943019F589837B83A7
:1029F0006A8382E08093E9008FEF9091E800815034
:102A000095FD06C095ED9A95F1F700008111F5CF7F
:102A10008091E80085FF0DC040E050E063E070E089
:102A2000CE0101960E941D178091E8008E77809359
:102A3000E8000F900F900F90DF91CF910895CF9302
:102A4000DF93EC010E940017823011F0843031F4E2
:102A5000BE0184E0DF91CF910C94EC14DF91CF9113
:102A60000895BC0183E00C94EC14CF93DF93EC0148
:102A70000E940017823011F08430D9F580910C014A
:102A8000882339F08091220287FF03C060E282E050
:102A900002C068E081E08093E9008FEF9091E80048
:102AA000815095FD06C095ED9A95F1F700008111D2
:102AB000F5CF8091E80085FF1CC080910C01811149
:102AC00005C040E050E068E070E003C070E040E026
:102AD00050E0CE010E941D178091E8008E77809310
:102AE000E80080E2FE01A3EFB1E001900D928A952B
:102AF000E1F7DF91CF91089580912702811109C0FC
:102B00000E94AE180E940B198091E20084608093AD
:102B1000E2000895109227020895089508950C94F4
:102B2000441442E061EC81E00E94271842E261EC2B
:102B300082E00C94271880912A02833009F460C047
:102B400030F4813071F0823009F499C008958A30F0
:102B500009F485C08B3009F46BC0893009F0A7C037
:102B600020C080912902813A09F0A1C08091E8003B
:102B7000877F8093E80080912D0290912E02892B0F
:102B800021F460E283EF91E003C060E080E090E038
:102B900070E00E9468178091E8008B778093E800CE
:102BA000089580912902813209F081C080912D021F
:102BB00090912E02029708F07AC08091E800877FFA
:102BC0008093E8008091E80082FD05C08091280292
:102BD0008111F8CF6CC02091F3008091F20090E059
:102BE000922B029729F48091F1008B7F813021F4A0
:102BF0008091F100809313028091E8008B7753C09D
:102C000080912902813A09F052C080912D02909161
:102C10002E02892B09F04BC08091E800877F8093BA
:102C2000E8008091E80080FFFCCF80910C0136C065
:102C3000809129028132D9F580912D0290912E0246
:102C4000892BA9F58091E800877F8093E8000E9496
:102C50005C1880912B0280930C010C94170C8091CE
:102C60002902813221F58091E800877F8093E80076
:102C70000E945C1880912C02809314020895809128
:102C80002902813AA1F48091E800877F8093E800CF
:102C90008091E80080FFFCCF809114028093F100C6
:102CA0008091E8008E778093E8000C945C1808957A
:102CB00084B7877F84BF0FB6F894A8958091600091
:102CC000886180936000109260000FBE90E080E801
:102CD0000FB6F89480936100909361000FBE0E943C
:102CE000A9070E94AE180E940B198091E20084602F
:102CF0008093E20078940E94A01B0E94B30782E0B8
:102D000091E00E94420780912802853069F40E9478
:102D10001214809126028823B1F30E94FA138823AB
:102D200091F30E940717EFCF0E94BB07ECCF0C94E2
:102D30009916292F332723303105C9F060F421304B
:102D4000310581F02230310509F04AC08BE390E073
:102D500020E631E049C02132310511F1223231053E
:102D600079F13EC082E190E02BE931E03DC0992746
:102D70008130910561F040F08230910559F0039760
:102D800079F5ECE1F1E008C0ECE5F1E005C0EAE33B
:102D9000F1E002C0E2E2F1E0849190E09F0124C002
:102DA0006115710541F061307105D1F489E090E061
:102DB0002BE831E019C089E090E022E731E014C04F
:102DC0006115710541F06130710551F48DE690E0B7
:102DD0002DEA31E009C080E490E02AE132E004C04D
:102DE00080E090E020E030E0FA0131832083089514
:102DF00080912802843011F081E0089582E00895E6
:102E000080911502811102C00C94F816089580E19A
:102E100089BD82E189BD09B400FEFDCF8091D80053
:102E20008F7D8093D8008091E00082608093E000E5
:102E30008091E00081FDFCCF0895CF92DF92EF9268
:102E4000FF920F931F93CF93DF93EC018B017A01D5
:102E50000E947B18811133C0E114F10439F0F701AD
:102E600080819181081B190BC80FD91FC12CD12C4F
:102E70000115110519F18091E80085FD16C08091BA
:102E8000E8008E778093E800E114F10449F0F7013F
:102E900080819181C80ED91ED182C08285E00FC089
:102EA0000E947B18882321F30AC089918093F10046
:102EB00001501109FFEFCF1ADF0ADACF80E0DF916E
:102EC000CF911F910F91FF90EF90DF90CF900895D9
:102ED00020912F02309130022617370748F06115F4
:102EE000710539F42091E8002E772093E80001C0A5
:102EF000B901FC0120E06115710579F1809128028A
:102F00008823F1F18530F1F18091E80083FD3CC028
:102F10008091E80082FD2EC08091E80080FFEBCF19
:102F20002091F3008091F20090E0922B61157105E1
:102F300051F08830910538F421912093F1006150CF
:102F400071090196F3CF21E0089709F020E0809104
:102F5000E8008E778093E800CECF2111CFCF0AC052
:102F600080912802882361F0853061F08091E8002B
:102F700083FD0AC08091E80082FFF2CF80E00895CF
:102F800082E0089583E0089581E0089520912F0262
:102F9000309130022617370748F06115710539F472
:102FA0002091E8002E772093E80001C0B901FC01D0
:102FB00020E06115710591F180912802882309F4C0
:102FC00040C0853009F43FC08091E80083FD3DC0DA
:102FD0008091E80082FD2FC08091E80080FFE9CF5A
:102FE0002091F3008091F20090E0922B6115710521
:102FF00059F08830910540F424912093F1003196E6
:10300000615071090196F2CF21E0089709F020E0A4
:103010008091E8008E778093E800CBCF2111CCCF50
:103020000AC080912802882361F0853061F0809188
:10303000E80083FD0AC08091E80082FFF2CF80E0C3
:10304000089582E0089583E0089581E00895982F1F
:10305000973068F59093E900981739F07091EC007B
:103060002091ED005091F00003C0242F762F50E006
:1030700021FD02C09F5FECCF3091EB003E7F30938B
:10308000EB003091ED003D7F3093ED003091EB008F
:1030900031603093EB007093EC002093ED0050937F
:1030A000F0002091EE0027FDE5CF80E008958F70BD
:1030B0008093E90081E008958091290287FF11C083
:1030C0008091E80082FD05C0809128028111F8CF2F
:1030D00011C08091E8008B770BC080912802882373
:1030E00049F08091E80080FFF8CF8091E8008E776A
:1030F0008093E80008952091E4003091E50095E682
:103100004091EC00842F817040FF23C08091E80043
:1031100080FD1DC080912802882399F0853099F0A8
:103120008091EB0085FD11C04091E4005091E500D5
:103130002417350729F3915011F09A01E1CF84E06B
:10314000089582E0089583E0089581E0089580E085
:1031500008954091E80042FFDDCF08950E941C19B8
:103160000E942419E0EEF0E0808181608083E8ED28
:10317000F0E080818F77808319BCA7EDB0E08C915F
:103180008E7F8C9380818F7E80831092270208959A
:103190000F931F93CF93DF930E941C190E94241951
:1031A000C8EDD0E088818F778883888180688883A4
:1031B00088818F7D888319BC109228021092240286
:1031C000109226021092250200EE10E0F801808194
:1031D0008B7F808388818160888342E060E080E02B
:1031E0000E942718E1EEF0E080818E7F8083E2EE7E
:1031F000F0E0808181608083808188608083F80135
:1032000080818E7F8083888180618883DF91CF91E8
:103210001F910F910895E8EDF0E080818F7E80830B
:10322000E7EDF0E080818160808384E082BF81E00F
:10323000809327020C94C818E8EDF0E080818E7F1F
:1032400080831092E20008951092DA001092E1005B
:1032500008951F920F920FB60F9211242F933F9350
:103260004F935F936F937F938F939F93AF93BF938E
:10327000EF93FF938091E10082FF0BC08091E20009
:1032800082FF07C08091E1008B7F8093E1000E9464
:103290009F1B8091DA0080FF1FC08091D80080FFC3
:1032A0001BC08091DA008E7F8093DA008091D90074
:1032B00080FF0DC080E189BD82E189BD09B400FEB7
:1032C000FDCF81E0809328020E947C1505C019BCC7
:1032D000109228020E948A158091E10080FF19C097
:1032E0008091E20080FF15C08091E2008E7F809384
:1032F000E2008091E20080618093E2008091D8003A
:1033000080628093D80019BC85E0809328020E94D7
:103310008E158091E10084FF30C08091E20084FF2F
:103320002CC080E189BD82E189BD09B400FEFDCFDA
:103330008091D8008F7D8093D8008091E1008F7EAE
:103340008093E1008091E2008F7E8093E200809183
:10335000E20081608093E20080912402882311F0D2
:1033600084E007C08091E30087FD02C081E001C0D6
:1033700083E0809328020E948F158091E10083FFF3
:1033800029C08091E20083FF25C08091E100877F02
:103390008093E10082E080932802109224028091C1
:1033A000E1008E7F8093E1008091E2008E7F809328
:1033B000E2008091E20080618093E20042E060E000
:1033C00080E00E9427188091F00088608093F000D0
:1033D0000E948D15FF91EF91BF91AF919F918F91B9
:1033E0007F916F915F914F913F912F910F900FBE01
:1033F0000F901F9018951F920F920FB60F921124E5
:103400002F933F934F935F936F937F938F939F93EC
:10341000AF93BF93CF93DF93EF93FF93C091E900F6
:10342000CF708091EC00D82FD17080FDD0E8109241
:10343000E9008091F000877F8093F00078940E94EB
:103440003F1A1092E9008091F00088608093F000AC
:10345000CD2BCF70C093E900FF91EF91DF91CF9119
:10346000BF91AF919F918F917F916F915F914F919C
:103470003F912F910F900FBE0F901F9018951F93A3
:10348000CF93DF93CDB7DEB7AA970FB6F894DEBF20
:103490000FBECDBFE9E2F2E08091F100819322E01E
:1034A000E133F207C9F70E949B158091E80083FF82
:1034B0002EC18091290290912A02492F50E04A3072
:1034C000510508F024C1FA01EC58FF4F0C94BB1BC6
:1034D000803821F0823809F01AC108C08091250295
:1034E00090912602992389F082600FC080912D026D
:1034F0008F70873008F00BC18093E9008091EB005A
:1035000085FB882780F91092E9009091E800977F69
:103510009093E8008093F1001092F100D1C0282F21
:103520002D7F09F0F4C0882319F0823061F0EFC0DC
:1035300080912B02813009F0EAC0933009F080E0DD
:10354000809326022EC080912B0281112AC0809187
:103550002D028F702FEF280F263008F0D8C08093EF
:10356000E9002091EB0020FF1CC0933021F48091F2
:10357000EB00806214C09091EB0090619093EB009F
:1035800021E030E0A90102C0440F551F8A95E2F7FF
:103590004093EA001092EA008091EB0088608093EB
:1035A000EB001092E9008091E800877F8093E800AB
:1035B0000E945C18ACC08111AAC010912B021F7729
:1035C0008091E3008078812B8093E3008091E80074
:1035D000877F8093E8000E945C188091E80080FF5C
:1035E000FCCF8091E30080688093E300111102C05A
:1035F00082E001C083E08093280289C08058823035
:1036000008F085C080912B0290912C028C3D53E0F4
:10361000950779F583E08A838AE289834FB7F89426
:10362000DE01139620E03EE051E2E32FF0E05093FC
:103630005700E49120FF03C0E295EF703F5FEF7009
:103640008E2F90E0EA3010F0C79601C0C0968D939F
:103650009D932F5F243149F74FBF8091E800877F0A
:103660008093E8006AE270E0CE0101960E9468173C
:1036700016C060912D0270912E02AE014F5F5F4F18
:103680000E949716BC01892B09F441C09091E80073
:10369000977F9093E80089819A810E94C617809154
:1036A000E8008B778093E80032C0803881F5809104
:1036B000E800877F8093E800809124028093F100E6
:1036C0008091E8008E7772CF811121C080912B020A
:1036D00090912C0299270297D4F48091E800877F7B
:1036E0008093E80080912B02809324020E945C1852
:1036F00080912402811106C08091E30087FD02C001
:1037000081E001C084E0809328020E94911580919D
:10371000E80083FF0AC08091E800877F8093E8007B
:103720008091EB0080628093EB00AA960FB6F8942C
:10373000DEBF0FBECDBFDF91CF911F9108950895D9
:10374000CF93809128028823A1F0C091E900CF7027
:103750009091EC00892F817090FD80E8C82B109229
:10376000E9008091E80083FD0E943F1ACF70C0936A
:10377000E900CF910895EE0FFF1F0590F491E02D21
:103780000994F999FECF92BD81BDF89A992780B529
:103790000895A8E1B0E042E050E00C94F51B262F1C
:1037A000F999FECF92BD81BDF89A019700B4021637
:1037B00039F01FBA20BD0FB6F894FA9AF99A0FBEE5
:1037C00008950396272F0E94D01B0E94CF1B252F00
:1037D0000E94D01B242F0C94D01B0196272F0E94EF
:1037E000D01B0C94CF1BDC01CB01FC01F999FECF5F
:1037F00006C0F2BDE1BDF89A319600B40D92415079
:0A3800005040B8F70895F894FFCF88
:10380A00CE01E8143515EB1431151F1501E200E954
:10381A0000EA00B500B600B700CD008301CC008AEB
:10382A000192019401210223022402250226022781
:10383A00022A02B300B4006F0070008182836631ED
:10384A003397E200E900EA00B500B600B700CD0000
:10385A008301CC008A0192019401210223022402ED
:10386A002502260227022A02B300B4006F00700064
:04387A0081828300C4
:00000001FF
