:100000000C9474010C94BB010C94BB010C94BB01C7
:100010000C94BB010C94BB010C94BB010C94BB0170
:100020000C94BB010C94BB010C9477190C94491AE5
:100030000C94FA140C94BB010C94BB010C94BB01FE
:100040000C94BB010C94BB010C94BB010C94BB0140
:100050000C94BB010C9447150C94BB010C94BB0190
:100060000C94BB010C94BB010C94BB010C94BB0120
:100070000C94BB010C94BB010C94BB010C94BB0110
:100080000C94BB010C94BB010C94BB010C94BB0100
:100090000C94BD010C94BB010C94BB010C94BB01EE
:1000A0000C94BB010C94BB010C94BB011A0B1A0BF2
:1000B0004C0B4C0BAF0CAF0CAF0CAF0C990B2E0CC8
:1000C0003F0C3F0C9F0CAF0CAF0CA80C430D430D25
:1000D000550D550D4C0D550D550D550D430D430D3D
:1000E000510D550D550D510DB61ADD1AD51BDD1AE2
:1000F000D51B291B4C1BD51BA31BB21B165C1E005A
:100100001F002000210022002300240025002600DB
:1001100027002D002E0000002A004B002B001400A9
:100120001A000800150017001C0018000C0012002F
:1001300013002F003000000031004A003900040095
:100140001600070009000A000B000D000E000F004A
:10015000330034000000510028004D00E100000091
:100160001D001B00060019000500110010003600DC
:1001700037003800E5004F0052004E00E000E30079
:10018000E2000000000000002C0000000000000061
:10019000E600E400015150000000000035003A0084
:1001A0003B003C003D003E003F004000410042005B
:1001B00043004400450000004C00460001000100DF
:1001C00001000100DE5C01000100010001000100EE
:1001D00001000100010000000100A9000100010070
:1001E0000100010001000100010001000100010007
:1001F0000100010000004E000100AA000100000003
:1002000001000100010001000100010001000100E6
:100210000100010001004D004B00A8000100010099
:1002200001000000000000000100000000000000CC
:100230000100010001004A0000000000040330003A
:10024000000012034C0046004B00360035005F00F2
:1002500048005300000018034C0046004B006500A6
:10026000790062006F00610072006400730000009A
:100270000403090409022200010100A0FA09040094
:1002800000010301010009211101000122400007C2
:1002900005810308000A1201100100000008EDFEAC
:1002A000646001000102030105010906A1010507BF
:1002B00019E029E7150025019508750181029501CE
:1002C000750881010507190029FF150026FF009513
:1002D0000675088100050819012905950575019124
:1002E00002950175039101C011241FBECFEFDAE022
:1002F000DEBFCDBF04B603FE27C080910F029091F0
:100300001002A0911102B09112028730904BA740C9
:10031000B04BD1F410920F02109210021092110201
:100320001092120214BE84B7877F84BF0FB6F89470
:10033000A8958091600088618093600010926000B1
:100340000FBEE0E0F8E3099511E0A0E0B1E0E6EAD5
:10035000F8E302C005900D92A232B107D9F722E06E
:10036000A2E2B1E001C01D92AF30B207E1F70E94F6
:10037000B9160C94511C0C9400001F920F920FB6EA
:100380000F9211242F933F934F935F938F939F93DB
:10039000EF93FF938091B900887F883239F180F420
:1003A000803109F4A6C030F4882309F4A6C088304F
:1003B000E9F0AAC08831B9F0803209F487C0A4C03E
:1003C0008034B1F138F4803309F480C0883309F403
:1003D0007DC09AC08035E1F1883509F45CC088346D
:1003E00009F092C073C083E08093DB012091DE01AD
:1003F0003091DF018091E6019091E70128173907DC
:100400000CF05AC02091E0013091E1018091DE01B1
:100410009091DF01AC014F5F5F4F5093DF0140933C
:10042000DE01F901E80FF91F80818093BB002EC027
:1004300084E08093DB018091E2019091E3010197D8
:100440002091E4013091E50128173907FCF419C027
:100450008091E4019091E5019C012F5F3F4F309323
:10046000E5012093E4014091BB00FC01E953FE4FFC
:1004700040838091E2019091E301019728173907A9
:100480002CF488EF8093DC0185EC3CC088EF8093EE
:10049000DC0185E837C08091E4019091E5019C0181
:1004A0002F5F3F4F3093E5012093E4012091BB0083
:1004B000FC01E953FE4F20838091DD01882311F078
:1004C0008FEF0BC01092DB018FEF10C08091DD0128
:1004D000882339F08091B900887F8093DC0185EA18
:1004E00011C01092DB018091B900887F8093DC01FC
:1004F00008C082E08093DB0107C01092DC011092FB
:10050000DB0185E98093BC00FF91EF919F918F9172
:100510005F914F913F912F910F900FBE0F901F90C1
:1005200018950C9463050C9461050F931F93CF935A
:10053000DF93EC018B01C1158CE5D80711F40E9403
:100540001203B801CE01DF91CF911F910F910C944E
:10055000AB0281E0089581E0089508950C94AD0206
:100560001F93CF93DF9300D000D01F92CDB7DEB79B
:1005700049835A836B8330913A0189819A81311181
:1005800014C0662359F0222349F00E947C12182FD0
:10059000682F89819A810E94251203C00E945012FF
:1005A000182F69817A81812F04C00E947C12698191
:1005B0007A810F900F900F900F900F90DF91CF9155
:1005C0001F910C946203FC01262F408151816281AE
:1005D000738184810C94B002CF93DF93EC0160E0CF
:1005E0000E94E302BE01DF91CF910C94AE020E9403
:1005F000AE13811102C00E944E140C9491020C940F
:10060000930208950C94010381E008950C9404036F
:10061000CF93C82F0E9402038C2F0E940603CF9114
:10062000089508950E94310D0E9411032FEF84E375
:100630009CE0215080409040E1F700C000000C9405
:100640006D150F931F93CF93DF93EC0161E00E9430
:10065000E3028C01BE010E949502882349F1BE018C
:10066000C8010E94F306882319F1BE01C8010E9447
:1006700034078823E9F0BE01C8010E945F0888237F
:10068000B9F08A81882369F001158CE5180731F0EB
:100690000E3D1C4531F40E944E140AC00E94120304
:1006A00007C0CE01DF91CF911F910F910C94A90249
:1006B00080E0DF91CF911F910F91089580E090E04D
:1006C00008950895E72FF0E095E0899FE00DF11D72
:1006D000112484E0EE0FFF1F8A95E1F7E60FF11D6C
:1006E000EE0FFF1FE450FF4F859194910895880FFE
:1006F000991FFC01E45CFD4F859194910895CF937F
:10070000DF930E9462030E947B04EC01811521E5C6
:100710009207A0F5811540E5940708F086C0C11541
:1007200080E2D807F0F4C11521E0D20708F0DFC05D
:10073000C03ED10588F4C03CD10508F062C0C1308C
:10074000D10509F4D4C008F4D0C0CE010497813A91
:10075000910508F4CCC0C9C0C83ED10508F4C7C093
:10076000C4C0C11540E4D40708F05CC0C11580E3E3
:10077000D80708F04DC0CE019F7046C0811525E511
:100780009207A0F4811544E5940708F095C0C115BF
:1007900083E5D80708F07AC0C11522E5D20708F032
:1007A0005FC0DC2FCC27C16FD06AA1C0811549E59D
:1007B0009407A0F4C11588E5D80708F082C0C115D8
:1007C00026E5D20708F091C08C2F0E940F058F718B
:1007D000C82FD0E0DC2FCC27D06289C081154AE534
:1007E000940708F473C090568115904208F07DC0BC
:1007F0008D2F8F710E940F05DD27D0628F71D82B4E
:1008000076C0CE01805C91090E947703EC016FC035
:10081000CE019927D3FF03C0EC01D86C68C0EC016E
:10082000D06C65C0DF70D06A62C074E09695879521
:100830007A95E1F783709C2F937021E030E002C03D
:10084000220F331F9A95E2F73C68382BCF70C6957C
:10085000C69540E2C49FE0011124C22BD32B47C0B0
:10086000CE018370992721E030E002C0220F331FB0
:100870008A95E2F78C2F8695869540E2849FC00189
:100880001124E901C82BD92BDC6831C0CE0183705B
:10089000992721E030E002C0220F331F8A95E2F74A
:1008A0008C2F8695869540E2849FC0011124E90132
:1008B000C82BD92BDA681BC0D82FCC27C46FD06ABD
:1008C00016C0DC2FCC27C06FD06A11C08F700E9479
:1008D0000F0594E0D695C7959A95E1F7CF70D0E0D3
:1008E000DC2FCC27D069C82B02C0C0E0D0E0CE01FD
:1008F000DF91CF9108958238910569F1B0F4813389
:10090000910509F46DC048F48932910509F463C07A
:100910008A32910509F469C008958533910509F477
:1009200055C089339105B9F00895833E910569F169
:1009300038F4803E9105B1F0823E910509F10895A9
:10094000863E9105A9F1873E9105B9F1843E910556
:1009500009F064C023C02091000220FD4FC021FD9A
:100960004DC008958091000280FD44C08091010235
:1009700080FF44C08091000284FD42C083EE4DC0E0
:100980008091000282FF38C0F5CF8091000282FD85
:1009900033C08091010280FD31C0ECCF8091010213
:1009A00081FF32C08091000284FD2AC087EE35C0ED
:1009B0008091000283FF26C0F5CF8091000283FD65
:1009C00021C08091010281FD1FC0ECCF8091000207
:1009D00085FD1CC01DC08091000285FD19C016C098
:1009E0008091000286FD16C017C08091000286FD2E
:1009F00013C010C089E311C082EE0FC080EE0DC09D
:100A000080E00BC086EE09C084EE07C089E205C015
:100A100085E303C08AE201C081E390E008959091EC
:100A2000000292FF0DC0282F2871283019F4877F0B
:100A3000846006C0282F2471243011F48B7F8860D5
:100A400093FF0DC0282F2871283119F4877E846107
:100A500006C0282F2471243111F48B7E88612091E7
:100A6000010220FF0DC0382F3871383019F4877F0C
:100A7000816006C0382F3171313011F48E7F88606B
:100A800021FF0DC0282F2871283119F4877E81613C
:100A900006C0282F2171213111F48E7E886194FDCA
:100AA000877E0895E82FF0E0EE0FFF1FEE50FE4F17
:100AB000808191810895089580EA8A95F1F70895DB
:100AC00008950C9460050C946005CF93DF93ADE11D
:100AD000B1E042E251E061E070E08D91E82FE295F3
:100AE000EF70F0E021A18F70EB0102C0CC0FDD1F91
:100AF0008A95E2F7CE019C2F9095922391A392A123
:100B0000892B82A34A175B0741F7ADE0B1E04DE1C5
:100B100051E061E070E08D91E82FE295EF70F0E038
:100B200021A18F70EB0102C0CC0FDD1F8A95E2F787
:100B3000CE019C2F9095922391A392A1892B82A301
:100B40004A175B0741F7E8EEF1E0A2EFB1E082EF70
:100B500091E0119211921D921D928E179F07C9F775
:100B600085E00E944406DF91CF910C94F7026F92CA
:100B70007F928F929F92AF92BF92CF92DF92EF922D
:100B8000FF920F931F93CF93DF938DE1C82E81E0E7
:100B9000D82E08EE11E092EFA92E91E0B92E712C1B
:100BA00088248394912CF60181916F01C82FC295FE
:100BB000CF70D0E099A18F70740101C0EE0C8A95BE
:100BC000EAF7892F8E2989A38AA16E2C6094862149
:100BD0008AA30E945C05EDE0F1E040E050E020E0F7
:100BE00030E06191A62FA295AF70B0E090968C9105
:100BF00090E06F7002C0959587956A95E2F780FD49
:100C000008C0C401042E02C0880F991F0A94E2F79D
:100C100002C080E090E0282B392B4F5F5F4F4031BE
:100C20005105F9F689A1682269A28AA1E82AEAA2F7
:100C3000F801808191812817390721F031832083C1
:100C400081E001C080E0782A0E5F1F4FA016B10638
:100C500009F0A9CF272D45E062EF71E088EE91E021
:100C60000E9445060E94FF02872DDF91CF911F91C0
:100C70000F91FF90EF90DF90CF90BF90AF909F903B
:100C80008F907F906F9008950895FF920F931F9318
:100C9000CF93DF93F82E092F162FD72FC42F22239F
:100CA00049F081E0809324010E942C159093230148
:100CB00080932201809124018823D9F08091220120
:100CC000909123010E943815069798F0EF2DF02F90
:100CD000A12FBD2F80E090E04C2F50E084179507A6
:100CE00034F4219131912D933D930196F7CF1092D9
:100CF0002401DF91CF911F910F91FF9008950F93E1
:100D00001F93CF93DF93C62FD42F122FFC01828124
:100D10008823C9F0609327010E942C159093260127
:100D20008093250180E28C0F883008F057C0C7708F
:100D300081E001C0880FCA95EAF7DF91CF911F913A
:100D40000F910C94D60A80912701681330C08091CE
:100D50002501909126010E943815883C910538F5AF
:100D600000E20D0FCD17B9F080E28C0F883040F40F
:100D7000C77081E001C0880FCA95EAF70E94DD0ABA
:100D8000083028F581E09D2F977001C0880F9A9553
:100D9000EAF70E94D60A812F0E94C30A0830F0F4B5
:100DA000D77081E001C0880FDA95EAF70AC080E2C7
:100DB0008C0F883098F4C77081E001C0880FCA9505
:100DC000EAF7DF91CF911F910F910C94DD0A812FEB
:100DD000DF91CF911F910F910C94C30ADF91CF91B6
:100DE0001F910F9108959C01CB01233F4CE53407DF
:100DF000F9F078F4283DFCE53F07B9F0293D4CE5D2
:100E0000340711F1273D3C4531F526E241EE61EE14
:100E10001EC0253FFCE53F0799F070F0263F3C459A
:100E2000D1F427E245EE66EE12C027E245EE0EC091
:100E300026E241EE60EE0BC027E245EE64EE07C00D
:100E400026E241EE62EE03C028E241E065EE0E9438
:100E50007F0680E00895FC018281882319F01092BA
:100E60002701089581E00895CF93DF93EC01FB0102
:100E70008281882309F41FC1C230FCE5DF0708F432
:100E80001BC1C6319CE5D90738F09E012A5F3C455D
:100E90002930310508F010C10E94C113909301025E
:100EA00080930002C031ECE5DE0709F4C3C008F00E
:100EB00041C0C8308CE5D80709F49AC0F0F4C430BA
:100EC000ECE5DE0709F487C068F4C2308CE5D8078A
:100ED00009F477C0C330DC4509F0E3C0809100021B
:100EE000826076C0C630ECE5DE0709F46EC008F01B
:100EF0007BC08091000288606BC0CC308CE5D80745
:100F000009F485C068F4CA30ECE5DE0709F474C062
:100F100008F079C00E94310D80910002806858C0AD
:100F2000CE308CE5D80709F476C008F07FC08091F8
:100F300000028BC0CB3FECE5DE0709F44FC018F58B
:100F4000C3318CE5D80709F47DC078F4C131ECE5F4
:100F5000DE0709F473C0C231DC4509F0A2C00E946B
:100F6000310D809100028F7733C0C5318CE5D807F1
:100F700009F472C008F486C0CA3FDC4509F091C08C
:100F8000809101023EC0CF3FFCE5DF0709F45FC05E
:100F900058F4CD3F9CE5D90709F444C008F43FC09C
:100FA0008091010282602DC0C130FDE5DF0709F4A8
:100FB00075C008F45DC0C230DD4509F072C080E044
:100FC0006EC080910002816003C080910002806148
:100FD0008093000266C08091000211C080910102DE
:100FE0008260809301025DC0809100028062F0CF38
:100FF000809100028064ECCF809100028860846060
:10100000E7CF8160EECF809100028E7FE1CF8091AB
:1010100000028D7FDDCF80910002877FD9CF809144
:10102000010218C0809101028D7FDBCF8091000208
:101030008F7ECECF809100028F7DCACF809100023B
:101040008F7BC6CF80910002877F8B7FC1CF80913D
:1010500001028D7F8E7FC5CF8091000282FB222707
:1010600020F991E0922790FB82F990FB83F9B0CFB1
:1010700080910102982F909591708E7F892B90FB23
:1010800081F9AFCF0E94310D8091000287FB2227AA
:1010900020F991E0922790FB87F99ACF81E00E9496
:1010A000501480910002909101020E94D2130E947C
:1010B000310D80E001C081E0DF91CF910895CF93A1
:1010C000DF9386319C4541F5EB010E94FD12982F7C
:1010D0008A812091000130910101882379F09A7A68
:1010E00081E009F480E080932801911102C069E257
:1010F00001C065E3C9010E9497140AC080912801CC
:10110000811102C069E201C065E3C9010E9499141E
:101110000E944B1380E001C081E0DF91CF910895E0
:1011200090932E0180932D010895E0912D01F0916F
:101130002E01309721F00190F081E02D099480E09C
:101140000895E0912D01F0912E01309721F0028059
:10115000F381E02D0994089520912B0130912C0109
:101160002817390771F090932C0180932B01E0919F
:101170002D01F0912E01309721F00680F781E02DAE
:10118000099408952091290130912A0128173907DF
:1011900071F090932A0180932901E0912D01F09143
:1011A0002E01309721F00084F185E02D09940895F7
:1011B00085B7806885BF85B7806885BF0895089525
:1011C0000C94DF080C94E0080C94DF080C94DF0802
:1011D0000E94D8080E94E4080C94E20881E0089577
:1011E0000C94EE080E9423150E9465050E9491153B
:1011F0000C94E6087F928F929F92AF92BF92CF920B
:10120000DF92EF92FF920F931F93CF93DF93CDB7AF
:10121000DEB72A970FB6F894DEBF0FBECDBF0E948F
:10122000B7050E94F008811111C08FEF89838A836E
:101230001B820E942C158160782F9D838C834981AD
:101240005A816B818D810E94A8094FC040E3A42E72
:1012500041E0B42E00E010E0702E802F0E94520575
:101260006C01F501819091905F0188269926811487
:10127000910431F40F5F1F4F0530110569F7D5CF89
:101280008091BA0181FD0E945B0580E0EE24E39429
:10129000F12C94012E213F21232B09F18E837F8293
:1012A000CE20DF2081E0CD2809F480E088870E94ED
:1012B0002C158160782F9A8789874E815F81688598
:1012C0008A850E94A809000F111FF801E05DFE4FFA
:1012D00080819181E826F926F182E08206C08F5F45
:1012E000EE0CFF1C8031A9F6C5CF0E9495089091A5
:1012F0002F018917C9F00E94950880932F012A9623
:101300000FB6F894DEBF0FBECDBFDF91CF911F9116
:101310000F91FF90EF90DF90CF90BF90AF909F9094
:101320008F907F900C9408032A960FB6F894DEBF36
:101330000FBECDBFDF91CF911F910F91FF90EF9026
:10134000DF90CF90BF90AF909F908F907F90089547
:10135000CF93DF93CDB7DEB72B970FB6F894DEBFF0
:101360000FBECDBF4F83588769877A878B87DE0191
:10137000119686E0FD0111928A95E9F785E0FE015C
:10138000379601900D928A95E1F749815A816B81D8
:101390007C818D819E810E94EA0F2B960FB6F89476
:1013A000DEBF0FBECDBFDF91CF910895FC018081DC
:1013B00091810E94BE120895CF93882309F482C0C0
:1013C000C82F8238C1F40E94950881FD7BC069E373
:1013D00080910001909101010E9497140E944B138B
:1013E0002FEF81EE94E0215080409040E1F700C063
:1013F000000069E319C08338F1F40E94950880FD6C
:1014000061C063E580910001909101010E949714F1
:101410000E944B132FEF81EE94E0215080409040CA
:10142000E1F700C0000063E58091000190910101A7
:101430000E94991444C08438C1F40E94950882FD2A
:1014400041C067E480910001909101010E949714CE
:101450000E944B132FEF81EE94E02150804090408A
:10146000E1F700C0000067E4DFCF8CEF8C0F813A1A
:10147000D0F46C2F80910001909101010E946114C1
:10148000882349F06C2F80910001909101010E9406
:1014900099140E944B136C2F8091000190910101CF
:1014A0000E9497140CC080E28C0F883058F4C770EB
:1014B00081E001C0880FCA95EAF70E940013CF911E
:1014C0000C944B13CF910895882309F45BC0682FC7
:1014D000823879F40E94950881FF54C069E38091B5
:1014E0000001909101010E9497140E944B1369E33F
:1014F00010C08338B1F40E94950880FF43C063E5B3
:1015000080910001909101010E9497140E944B1359
:1015100063E580910001909101010E9499140C945F
:101520004B13843879F40E94950882FF2BC067E43E
:1015300080910001909101010E9497140E944B1329
:1015400067E4E7CF8CEF860F813A18F380E2860FCD
:10155000883048F4677081E001C0880F6A95EAF727
:101560000E940613DCCF8BE5860F833020F480E0E9
:1015700090E00C94AC08685A673120F480E090E069
:101580000C94C2080895CF93C82F0E94DC09C93378
:1015900049F42FEF87EE93E0215080409040E1F72F
:1015A00000C000008C2FCF910C94640A882321F096
:1015B0000E9400130C944B130895882321F00E947D
:1015C00006130C944B130895CF92DF92EF92FF9283
:1015D0000F931F93CF93DF937C01062FC72FFC013E
:1015E000D581D295DF70128111110E941D130E94C6
:1015F000F612882399F0112389F08C2F807F803494
:1016000021F080E2800F883048F082E00E9495133C
:101610000E94F61291E0D82ED92601C0D12CCC2EF2
:10162000C2948FE0C8228C2D90E0FC01EA5AFF4F53
:101630000C94091C8C2F807FCF70882311F0C295E9
:10164000C07F112399F0CC2309F464C180E2800F9C
:10165000883010F0011104C08C2F0E94001303C0C9
:101660008C2F0E9410130E944B1354C1802F0E9494
:10167000640ACC2309F473C180E2800F883010F033
:10168000011104C08C2F0E94061303C08C2F0E94EE
:1016900016130E944B1363C18C2F807FCF70803252
:1016A00011F0C295C07F002319F00130C9F022C0AB
:1016B000112371F0DD2341F0D13031F40E94301359
:1016C0008C2B0E9438134BC10E9430138C2B1DC0F1
:1016D000DD2319F0D13009F442C10E94411325C025
:1016E000112321F0D63008F03AC10EC0D53008F0F1
:1016F00036C11BC0112361F0DD2331F0F701858174
:1017000080FF08C18F7085838C2F0E94D60A27C165
:10171000DD2359F0093309F00EC1FFEF27EE83E016
:10172000F15020408040E1F704C18C2F0E94DD0A77
:1017300016C18C2F837009F045C0111114C1402FC0
:10174000429546954770440F440F602F6F70862F67
:1017500090E0A0E0B0E0042E04C0880F991FAA1FFB
:10176000BB1F0A94D2F704FF10C00FE010E020E086
:1017700030E004C0000F111F221F331F4A95D2F71B
:10178000009510952095309503C000E010E0980179
:10179000C695C695C370BC01CD01602B712B822B01
:1017A000932BC23049F058F4C13019F00E943B111C
:1017B000DAC00E942911D7C00E944D11D4C00E94E6
:1017C0002711D1C0112319F08C2F817001C086958B
:1017D000882309F4C8C0402F429546954770440FAE
:1017E000440F602F6F70862F90E0A0E0B0E0042ED1
:1017F00004C0880F991FAA1FBB1F0A94D2F704FFC9
:1018000010C00FE010E020E030E004C0000F111F16
:10181000221F331F4A95D2F70095109520953095D9
:1018200003C000E010E09801C695C695C370BC01E6
:10183000CD01602B712B822B932BC23049F058F4D1
:10184000C13019F00E9400128EC00E94EE118BC0B0
:101850000E94121288C00E94611185C0CF701123AE
:1018600039F08C2F0E948711802F0E94D60A7BC0EE
:10187000802F0E94DD0A8C2F0E94A81174C0023FA5
:1018800001F128F4003F41F0013FA1F03FC0033FC8
:10189000F9F0043F39F13AC0112341F0D53008F096
:1018A0005EC08C2F8F710E94CD1159C0D63008F0C8
:1018B00056C0F7CF112339F08C2F8F710E948711FA
:1018C0004EC01123C9F38C2F8F710E94A81147C0FD
:1018D000112329F08C2F8F710E94721140C00E9439
:1018E0006D113DC0112349F0CF718C2F0E948711DB
:1018F00063E08C2F0E94801332C081E00E94951318
:10190000D23068F182E00E94951329C0112331F092
:10191000DD2391F2802F0E94DC0921C0DD2399F2A2
:10192000093349F49FEFE7EEF3E09150E040F040D7
:10193000E1F700C00000802F0E94640A10C04C2F05
:101940004F70602FC7010E945E030E9498100FC065
:101950004C2F4F70602FC7010E94610308C088EFB1
:101960008C0D843020F40E9495080E940803DD202D
:10197000C9F00E94F21280FD15C0F70112820E9488
:10198000EC120E948711C7010E94F30C0E94EC1216
:10199000DF91CF911F910F91FF90EF90DF90CF904B
:1019A0000C94A811DF91CF911F910F91FF90EF90B0
:1019B000DF90CF9008950F931F93CF93DF93EC01A7
:1019C000688179818A810E94C9128C010E94241247
:1019D0000E941511B801CE010E94E40ADF91CF9157
:1019E0001F910F910895CF93DF93EC019881898126
:1019F0002B813C81232B31F08F3F31F481E09F3FDD
:101A000019F403C081E001C080E080FD19C0CE015F
:101A10000E94210381110CC00E94F612882381F0DC
:101A20008A81882369F082E0DF91CF910C9495132D
:101A3000CE010E94DB0CCE01DF91CF910C94EC0221
:101A4000DF91CF9108950E941D130E942D130C94D5
:101A50004B1380910001909101010E949B140C9402
:101A6000230D0E940D130C94290DE92FE295EF70C0
:101A70004E2F50E0FA013297EE30F105B0F4EA59FA
:101A8000FF4F0C94091C803F91F018F4883E68F4D5
:101A90000EC0843F51F40BC0883E48F0813F29F4CA
:101AA00006C093FB882780F9089580E0089581E0BF
:101AB00008950E94BE120E94350D0895CF93DF93C2
:101AC00000D000D01F92CDB7DEB70F900F900F90CF
:101AD0000F900F90DF91CF910895CF93DF9300D0B7
:101AE00000D000D0CDB7DEB726960FB6F894DEBF93
:101AF0000FBECDBFDF91CF9108951F93CF93DF939A
:101B0000C0913B0116E080913C01C81799F0D0E0EC
:101B10001C9FF0011D9FF00D1124E35CFE4F4081DE
:101B2000518162817381848195810E946D0D21961E
:101B3000C770E9CFDF91CF911F91089540916D015A
:101B400050916E0160916F017091700180917101EF
:101B5000909172010C946D0D0F931F93CF93DF93AF
:101B60008091720182958F7009F05DC080916F0144
:101B7000882309F458C080913B0110913C01609189
:101B80006D0170916E01C0917001D091710191E071
:101B90006F3F09F090E0292F06E0811709F443C058
:101BA000209721F07F3F21F030E003C031E001C0F9
:101BB000322F90E030FD34C0089FF001099FF00DF6
:101BC0001124DF01A35CBE4F11963C91119737138E
:101BD00027C03C91361324C012963C9112973111C4
:101BE0001FC013964D915C9114974C1B5D0B483CA4
:101BF0005105B0F4809172018F7080618093720101
:101C0000EE5BFE4F80818F70806180838DE691E076
:101C10000E94F30CDF91CF911F910F910C947D0DD9
:101C200001968770BACFDF91CF911F910F910895E0
:101C30009F92AF92BF92CF92DF92EF92FF920F935B
:101C40001F93CF93DF93CDB7DEB761970FB6F894AC
:101C5000DEBF0FBECDBF8C0185E0F801DE011D9611
:101C600001900D928A95E1F7F80140815181E2805F
:101C700090916D0160916E01209170013091710120
:101C80002115310531F06F3F31F481E09F3F19F4A8
:101C900003C081E001C080E0F82FF1709F2E80FD2D
:101CA00046C1F801A380B4808DE6C82E81E0D82E0D
:101CB000F0906F01F501E21BF30BFF2009F4DFC088
:101CC00080917201E83CF10508F09BC0282F207F2D
:101CD00009F052C0561313C0491311C0FE2CE11075
:101CE0000EC08F708061809372010E949E0DC601AC
:101CF0000E94F30C80917201F801858358C1AB28D2
:101D000031F05F3F31F481E04F3F19F403C081E0CF
:101D100001C080E080FD03C081E08E2502C080E02C
:101D200090E0F82FF170FF2E80FF1CC080913B01E6
:101D300020913C0136E0821709F417C190E0389FEA
:101D4000F001399FF00D1124E35CFE4F61815613C1
:101D500006C06081461303C06281E61203C001968B
:101D60008770E9CFFE2CEE2009F421C18091720129
:101D70008160809372015AC0561306C0491304C093
:101D8000E11002C0F8019FC04D875E878D859E855A
:101D90000E94590D882379F1EE2069F1209172019A
:101DA000822F82958F7090E0029774F080916D0180
:101DB00090916E0198878F831986BB86AA862C879F
:101DC000CE0107960E94F30C86E0F801ADE6B1E083
:101DD00001900D928A95E1F70E94AC0D0E949E0D34
:101DE0000DC0561729F14D875E878D859E850E940F
:101DF000590D81112CC0C8010E94F30CFF24F394EB
:101E0000D6C0282F207F69F77A2DB98AA88A6E2D2F
:101E100089890E945E0D8DE691E00E94F30C86E0B8
:101E2000F60111928A95E9F70E949E0DF12CBFC030
:101E30004913D9CFE110D7CFF8018583C8010E949B
:101E4000F30C86E0F60111928A95E9F7B0C0EE2016
:101E500091F220917201822F82958F7090E002970B
:101E60000CF4B2CF80916D0190916E019A838983B9
:101E70001B82BD82AC822E83CE010196A3CFE83CAB
:101E8000F10508F047C0FE2CEE2009F4B4CF56133C
:101E900030C049132EC02091720120FD21C0822F35
:101EA00082958F70482F50E041155105C9F0F80117
:101EB00025834F30510541F08F5F982F9295907F89
:101EC000822F8F70892B8583C8010E94F30C86E0D6
:101ED000F801ADE6B1E001900D928A95E1F742C0BC
:101EE00086E0F801ADE6B1E001900D928A95E1F748
:101EF0005EC04D875E878D859E850E94590D81113C
:101F000063CF80917201816080937201C8010E9449
:101F1000F30C4DC07A2DB98AA88A6E2D89890E944A
:101F20005E0D86E0F60111928A95E9F71BC0EE205E
:101F300009F461CF4D875E878D859E850E94590D7E
:101F4000F82E882309F457CF86E0F801ADE6B1E01A
:101F500001900D928A95E1F78DE691E00E94D609F5
:101F60000E94AC0D0E949E0D22C04D875E878D851C
:101F70009E850E94BE12292F22952F70223028F4B0
:101F80009F7039F0811105C00BC0243028F49F7078
:101F900049F4805E883020F0C8010E94F30C9F2C29
:101FA000F92C05C0F8019581907F99F7F9CF8F2D15
:101FB00061960FB6F894DEBF0FBECDBFDF91CF9113
:101FC0001F910F91FF90EF90DF90CF90BF90AF9057
:101FD0009F9008951F93CF93DF93CDB7DEB72C97D3
:101FE0000FB6F894DEBF0FBECDBF4F835887698709
:101FF0007A878B879C87CE0107960E94180E8823CC
:10200000D1F09F8188852A853B85232B31F08F3F36
:1020100031F481E09F3F19F403C081E001C080E00A
:1020200080FD47C04F81588569857A858B859C8561
:102030000E946D0D3EC086E0FE013796DE011196CE
:1020400001900D928A95E1F7FF81E8856A857B858D
:102050006115710531F0EF3F31F481E0FF3F19F474
:1020600003C081E001C080E080FD23C020913C01DD
:1020700030E0C90101968770992740913B0150E0FB
:1020800084179507F1F1F983EA837D836C8396E0E9
:10209000929FD001939FB00D1124A35CBE4FFE010F
:1020A000319601900D929A95E1F780933C010E9440
:1020B0007D0D16E080913B0190913C01891771F1F3
:1020C000189FC0011124835C9E4F0E94180E882324
:1020D00029F1E0913B011E9FF0011124E35CFE4FCA
:1020E0004081518162817381848195810E946D0D4F
:1020F00080913B0190E001968770992780933B0186
:10210000D9CF0E94310D10923C0110923B01EDE6B7
:10211000F1E086E0DF011D928A95E9F72C960FB673
:10212000F894DEBF0FBECDBFDF91CF911F91089510
:10213000EF92FF920F931F93CF93DF938C01892B24
:1021400009F46CC0F12CEE24E394E8012196F80127
:102150008491843740F4843008F051C0813081F09C
:10216000823019F15BC0853709F444C0A8F19CE7BF
:10217000980F903708F052C08F770E94640A41C0D0
:102180000E5F1F4FFE01849190E2980F983050F43B
:102190008770FE2D01C0FF0F8A95EAF78F2F0E94EE
:1021A000201314C00E94DC092DC00E5F1F4FFE01DA
:1021B000849190E2980F983060F48770FE2D01C0F2
:1021C000FF0F8A95EAF78F2F0E9426130E944B1368
:1021D00019C00E94640A16C00E5F1F4FFE01C49111
:1021E000CC2381F08FE99FE00197F1F700C0000058
:1021F000C150F6CF0E5F1F4FFE01F49003C00E9446
:10220000DC098E018F2D882309F49FCFEFE9FFE0D1
:102210003197F1F700C000008150F5CFDF91CF91E9
:102220001F910F91FF90EF900895089508950C94D9
:1022300016110C9417110E9419116093A901709343
:10224000AA018093AB019093AC010C94230D0C94E4
:102250001B110F931F930091A9011091AA012091C6
:10226000AB013091AC01602B712B822B932B1F9112
:102270000F910C941B110F931F930091A9011091C2
:10228000AA012091AB013091AC016023712382231C
:1022900093231F910F910C941B110F931F93009187
:1022A000A9011091AA012091AB013091AC016027E6
:1022B0007127822793271F910F910C941B110C9467
:1022C00016110E945F116093A5017093A60180937F
:1022D000A7019093A8010C94230D60E070E0CB015E
:1022E0000C9461110F931F9341E050E060E070E0A7
:1022F0008A019B0104C0000F111F221F331F8A9502
:10230000D2F7C901B8011F910F910C9461110F937D
:102310001F9341E050E060E070E004C0440F551F9F
:10232000661F771F8A95D2F78091A5019091A6012B
:10233000A091A701B091A8018A019B01082B192B3C
:102340002A2B3B2BC901B8011F910F910C946111ED
:102350000F931F9341E050E060E070E004C0440F31
:10236000551F661F771F8A95D2F740955095609547
:1023700070958091A5019091A601A091A701B091BF
:10238000A8018A019B01082319232A233B23C901A1
:10239000B8011F910F910C9461110F931F9341E0AD
:1023A00050E060E070E004C0440F551F661F771FC7
:1023B0008A95D2F78091A5019091A601A091A701DD
:1023C000B091A8018A019B01082719272A273B27DA
:1023D000C901B8011F910F910C9461110F931F93C4
:1023E0000091A5011091A6012091A7013091A801AB
:1023F000602B712B822B932B1F910F910C946111E9
:102400000F931F930091A5011091A6012091A701A0
:102410003091A80160237123822393231F910F9190
:102420000C9461110F931F930091A5011091A601C7
:102430002091A7013091A801602771278227932757
:102440001F910F910C946111089520E1929F800DCE
:102450001124E82FE695E695E695877051E001C0D6
:10246000550F8A95EAF785E0E89FF0011124ED58B1
:10247000FE4F20E030E070E04081CB01022E02C030
:10248000969587950A94E2F7817081958427852334
:10249000842781932F5F3F4F2530310569F70895D9
:1024A00020E1929F800D1124682F669566956695B0
:1024B000982F977085E0689FB001112440E050E0AC
:1024C00080E0FB01E40FF51FED58FE4F208130E066
:1024D000092E02C0369527950A94E2F7217033271A
:1024E000042E01C0220F0A94EAF7822B4F5F5F4F40
:1024F0004530510531F70895BF92CF92DF92EF92A8
:10250000FF920F931F93CF93DF938C01C090A5018F
:10251000D090A601E090A701F090A8018091A901B8
:102520009091AA01A091AB01B091AC01C82AD92A1F
:10253000EA2AFB2ACFE1D0E0D701C6010C2E04C065
:10254000B695A795979587950A94D2F780FD04C014
:10255000219790F7B12C07C0BC2EB8018C2F0E9498
:102560007F030197A9F38B2DDF91CF911F910F91DD
:10257000FF90EF90DF90CF90BF900895CF93DF93BF
:10258000EC010E947C12BE010E947F03DF91CF917B
:1025900008951F93CF93DF93EB0190913A01992314
:1025A00021F0CB010E94BE1213C0882349F0CB0159
:1025B0000E947C12182F682FCE010E94251204C0A1
:1025C000CB010E945012182FBE01812F0E947F0361
:1025D000DF91CF911F9108958091AD0185958595EB
:1025E000859508958091AD01877008959091AD0112
:1025F000977081E009F480E008958091B901089511
:102600009091B901892B8093B9010895809590919B
:10261000B90189238093B90108951092B9010895F1
:102620009091B801892B8093B8010895809590917D
:10263000B80189238093B80108951092B8010895D4
:102640009091B701892B8093B7010895809590915F
:10265000B70189238093B70108951092B7010895B7
:102660008091AE01089508950C9433130C943413A3
:102670009091AE01981721F08093AE010C9436131F
:1026800008958091AE01882329F01092AE0180E078
:102690000C9436130895E0910001F09101018091AE
:1026A000B9018083E0910001F09101019081809156
:1026B000B801892B8083E0910001F09101019081A4
:1026C0008091B701892B80838091AE01882381F0AE
:1026D000E0910001F09101019081892B808380912C
:1026E0000001909101010E94551481110E94411333
:1026F00080910001909101010C94A1080C94331376
:1027000098E0899F90011124262B2093AD010E940F
:1027100087118091AD018595859585950C947E13E3
:102720001092AD0180E00C947E132091AD01809554
:1027300082238093AD01982F977079F430E0482F71
:10274000082E000C550B2417350739F08595859513
:1027500085950E94A8110C949013089580E090E054
:102760000E94171C21E08C3E9E4F09F020E0822F32
:10277000089582E090E00C940F1C83E090E00C94AC
:102780000F1CCF9384E090E00E940F1CC82F81E2C1
:1027900090E00E940F1C2C2F30E0A901582BCA0199
:1027A000CF910895CF93C92F682F84E090E00E94C5
:1027B0001D1C6C2F81E290E0CF910C941D1CAB018D
:1027C000BC018FE090E00C942F1CAB01BC0183E1B5
:1027D00090E00C942F1C60E070E0CB010C94E513AA
:1027E00060E070E0CB010E94DF130C94EB136CEE01
:1027F0007EEF80E090E00E943B1C60E082E090E091
:102800000E941D1C60E083E090E00E941D1C10925D
:10281000A9011092AA011092AB011092AC0160E0E4
:1028200084E090E00E941D1C60E081E290E00E9444
:102830001D1C60E085E090E00E941D1C60E086E0C9
:1028400090E00E941D1C6FEF87E090E00E941D1C2D
:1028500040E050E0BA0188E090E00E942F1C60E068
:102860008DE090E00E941D1C40E050E0BA0188E13C
:1028700090E00E942F1C60E087E190E00E941D1C08
:1028800040E050E0BA018CE190E00E942F1C60E033
:1028900080E290E00E941D1C0C94F0130C94F7133E
:1028A000682F8EE090E00C941D1CFC01329697E09E
:1028B00080E0915029F021912223D9F38F5FF9CF45
:1028C0000895662349F0FC0132960896219162171B
:1028D00029F0E817F907D1F780E0089581E008951D
:1028E0009C01FC0132969FEF80E04191461789F0F0
:1028F0009F3F19F4411101C0982F8F5F8630A9F7CF
:102900009F3F39F0F901E90FF11D97FDFA956283B8
:10291000089508959C012A5F3F4FFC0142814613B0
:1029200001C01282019682179307B9F708950C949B
:1029300070140C948A14029626E0FC0111922A95D8
:10294000E9F7089508950C94A2140C94A214CF935F
:102950000E94A5140E94B7050E94A314C0E08C2F0A
:102960000E945205892B29F4CF5FC530C1F780E062
:1029700001C081E0CF9108950C94A2140C94BC1472
:102980000E94BE1480910602843049F11092BB016E
:1029900020E488E190E00FB6F894A8958093600059
:1029A0000FBE2093600080E00E9408030E94BE14C6
:1029B00083B7817F846083BF83B7816083BF78944E
:1029C000889583B78E7F83BF0FB6F894A8958091C2
:1029D0006000886180936000109260000FBE0895CF
:1029E0000C94A2140E94310D0E9495080E940803C5
:1029F0000C94F0141F920F920FB60F9211248F9324
:102A00009F93AF93BF938091BB01811113C08091BD
:102A1000FC019091FD01A091FE01B091FF01419652
:102A2000A11DB11D8093FC019093FD01A093FE01B7
:102A3000B093FF01BF91AF919F918F910F900FBE07
:102A40000F901F90189582E084BD93E095BD9AEF9A
:102A500097BD80936E0008952FB7F8948091FC0184
:102A60009091FD01A091FE01B091FF012FBF08954B
:102A70009C014FB7F8948091FC019091FD01A091C9
:102A8000FE01B091FF014FBF821B930B0895789414
:102A90001F920F920FB60F9211248F939F93AF93B3
:102AA000BF938091FC019091FD01A091FE01B09136
:102AB000FF010196A11DB11D8093FC019093FD01C2
:102AC000A093FE01B093FF01BF91AF919F918F91B1
:102AD0000F900FBE0F901F90189581E08093E0003B
:102AE00080E28093D8001092C9008FE19EE40197A4
:102AF000F1F700C0000087E090EBDC0180930F024B
:102B000090931002A0931102B09312029CE088E10E
:102B10000FB6F894A895809360000FBE9093600064
:102B2000FFCF0E94AE13811102C00E944E140E947A
:102B3000B9138093BA010E94C1139093010280934C
:102B400000020E94BD13682F70E080E090E00C94BA
:102B500027118091C401089508950895CF93DF93BC
:102B6000EC010E944E17823011F0843039F581E07B
:102B70008093E9008FEF9091E800815095FD06C0A9
:102B800095ED9A95F1F700008111F5CF8091E8005D
:102B900085FF14C040E050E068E070E0CE010E9484
:102BA0006B178091E8008E778093E80088E0FE0143
:102BB000ACEBB1E001900D928A95E1F7DF91CF91F6
:102BC0000895089580910502811109C00E94FC18A2
:102BD0000E9459198091E20084608093E200089578
:102BE000109205020895089508950C94F21442E09D
:102BF00061EC81E00C94751880910802833009F42F
:102C000060C030F4813071F0823009F499C00895C9
:102C10008A3009F485C08B3009F46BC0893009F023
:102C2000A7C020C080910702813A09F0A1C080911D
:102C3000E800877F8093E80080910B0290910C025E
:102C4000892B21F468E08CEB91E003C060E080E028
:102C500090E070E00E94B6178091E8008B77809337
:102C6000E800089580910702813209F081C08091C7
:102C70000B0290910C02892B09F07AC08091E80038
:102C8000877F8093E8008091E80082FD05C08091F5
:102C900006028111F8CF6CC02091F3008091F20000
:102CA00090E0922B029729F48091F1008B7F813084
:102CB00021F48091F1008093C4018091E8008B772A
:102CC00053C080910702813A09F052C080910B02F3
:102CD00090910C02892B09F04BC08091E800877F0E
:102CE0008093E8008091E80080FFFCCF80910C0188
:102CF00036C0809107028132D9F580910B02909104
:102D00000C02892BA9F58091E800877F8093E80069
:102D10000E94AA188091090280930C010C94310D35
:102D200080910702813221F58091E800877F8093AE
:102D3000E8000E94AA1880910A028093C5010895B4
:102D400080910702813AA1F48091E800877F809307
:102D5000E8008091E80080FFFCCF8091C50180935E
:102D6000F1008091E8008E778093E8000C94AA1817
:102D7000089584B7877F84BF0FB6F894A895809193
:102D80006000886180936000109260000FBE90E048
:102D900080E80FB6F89480936100909361000FBEB5
:102DA0000E94E8080E94FC180E9459198091E200D4
:102DB00084608093E20078940E94EE1B0E94F208E7
:102DC00082E091E00E94900880910602853069F4CB
:102DD0000E94C014809104028823B1F30E94A714BA
:102DE000882391F30E945517EFCF0E94FA08ECCF89
:102DF0000C94FA16292F332723303105C1F058F4EB
:102E00002130310579F022303105C1F582E290E0C0
:102E100024E732E037C02132310511F12232310589
:102E200031F12CC082E190E026E932E02BC09927F5
:102E30008130910561F040F08230910559F003979F
:102E4000E9F4ECE3F2E008C0E0E7F2E005C0E6E513
:102E5000F2E002C0E2E4F2E0849190E09F0112C04F
:102E6000672B61F489E090E026E832E00BC0672B25
:102E700029F480E490E028EA32E004C080E090E0A9
:102E800020E030E0FA01318320830895809106022A
:102E9000843011F081E0089582E008958091C601A8
:102EA000811102C00C944617089580E189BD82E12A
:102EB00089BD09B400FEFDCF8091D8008F7D80933D
:102EC000D8008091E00082608093E0008091E00073
:102ED00081FDFCCF0895CF92DF92EF92FF920F9386
:102EE0001F93CF93DF93EC018B017A010E94C918E5
:102EF000811133C0E114F10439F0F701808191812F
:102F0000081B190BC80FD91FC12CD12C0115110595
:102F100019F18091E80085FD16C08091E8008E7758
:102F20008093E800E114F10449F0F7018081918178
:102F3000C80ED91ED182C08285E00FC00E94C91878
:102F4000882321F30AC089918093F100015011096F
:102F5000FFEFCF1ADF0ADACF80E0DF91CF911F9128
:102F60000F91FF90EF90DF90CF90089520910D0288
:102F700030910E022617370748F06115710539F4B4
:102F80002091E8002E772093E80001C0B901FC01F0
:102F900020E06115710579F1809106028823F1F135
:102FA0008530F1F18091E80083FD3CC08091E8001C
:102FB00082FD2EC08091E80080FFEBCF2091F300CE
:102FC0008091F20090E0922B6115710551F08830EC
:102FD000910538F421912093F10061507109019617
:102FE000F3CF21E0089709F020E08091E8008E7788
:102FF0008093E800CECF2111CFCF0AC08091060286
:10300000882361F0853061F08091E80083FD0AC07B
:103010008091E80082FFF2CF80E0089582E0089579
:1030200083E0089581E0089520910D0230910E0211
:103030002617370748F06115710539F42091E8002B
:103040002E772093E80001C0B901FC0120E0611552
:10305000710591F180910602882309F440C0853002
:1030600009F43FC08091E80083FD3DC08091E800F5
:1030700082FD2FC08091E80080FFE9CF2091F3000E
:103080008091F20090E0922B6115710559F0883023
:10309000910540F424912093F1003196615071091B
:1030A0000196F2CF21E0089709F020E08091E80036
:1030B0008E778093E800CBCF2111CCCF0AC08091CE
:1030C0000602882361F0853061F08091E80083FD7D
:1030D0000AC08091E80082FFF2CF80E0089582E08C
:1030E000089583E0089581E00895982F973068F55A
:1030F0009093E900981739F07091EC002091ED0061
:103100005091F00003C0242F762F50E021FD02C023
:103110009F5FECCF3091EB003E7F3093EB0030911E
:10312000ED003D7F3093ED003091EB003160309346
:10313000EB007093EC002093ED005093F000209191
:10314000EE0027FDE5CF80E008958F708093E900C1
:1031500081E008958091070287FF11C08091E80007
:1031600082FD05C0809106028111F8CF11C08091C7
:10317000E8008B770BC080910602882349F080918C
:10318000E80080FFF8CF8091E8008E778093E80018
:1031900008952091E4003091E50095E64091EC001F
:1031A000842F817040FF23C08091E80080FD1DC006
:1031B00080910602882399F0853099F08091EB0088
:1031C00085FD11C04091E4005091E50024173507BA
:1031D00029F3915011F09A01E1CF84E0089582E043
:1031E000089583E0089581E0089580E00895409176
:1031F000E80042FFDDCF08950E946A190E9472190B
:10320000E0EEF0E0808181608083E8EDF0E0808195
:103210008F77808319BCA7EDB0E08C918E7F8C9363
:1032200080818F7E80831092050208950F931F93F3
:10323000CF93DF930E946A190E947219C8EDD0E003
:1032400088818F77888388818068888388818F7D53
:10325000888319BC10920602109202021092040296
:103260001092030200EE10E0F80180818B7F8083D2
:1032700088818160888342E060E080E00E94751868
:10328000E1EEF0E080818E7F8083E2EEF0E08081ED
:1032900081608083808188608083F80180818E7F57
:1032A0008083888180618883DF91CF911F910F9106
:1032B0000895E8EDF0E080818F7E8083E7EDF0E017
:1032C00080818160808384E082BF81E080930502F9
:1032D0000C941619E8EDF0E080818E7F80831092C7
:1032E000E20008951092DA001092E10008951F9212
:1032F0000F920FB60F9211242F933F934F935F932A
:103300006F937F938F939F93AF93BF93EF93FF93AD
:103310008091E10082FF0BC08091E20082FF07C034
:103320008091E1008B7F8093E1000E94ED1B8091F2
:10333000DA0080FF1FC08091D80080FF1BC0809101
:10334000DA008E7F8093DA008091D90080FF0DC073
:1033500080E189BD82E189BD09B400FEFDCF81E035
:10336000809306020E94E21505C019BC1092060265
:103370000E94F0158091E10080FF19C08091E20069
:1033800080FF15C08091E2008E7F8093E2008091E3
:10339000E20080618093E2008091D8008062809397
:1033A000D80019BC85E0809306020E94F415809134
:1033B000E10084FF30C08091E20084FF2CC080E1F6
:1033C00089BD82E189BD09B400FEFDCF8091D8009E
:1033D0008F7D8093D8008091E1008F7E8093E10003
:1033E0008091E2008F7E8093E2008091E200816014
:1033F0008093E20080910202882311F084E007C0EC
:103400008091E30087FD02C081E001C083E08093EA
:1034100006020E94F5158091E10083FF29C080918A
:10342000E20083FF25C08091E100877F8093E10067
:1034300082E080930602109202028091E1008E7F6A
:103440008093E1008091E2008E7F8093E200809182
:10345000E20080618093E20042E060E080E00E9450
:1034600075188091F00088608093F0000E94F31539
:10347000FF91EF91BF91AF919F918F917F916F914C
:103480005F914F913F912F910F900FBE0F901F9022
:1034900018951F920F920FB60F9211242F933F93FE
:1034A0004F935F936F937F938F939F93AF93BF934C
:1034B000CF93DF93EF93FF93C091E900CF7080919A
:1034C000EC00D82FD17080FDD0E81092E9008091F7
:1034D000F000877F8093F00078940E948D1A1092FC
:1034E000E9008091F00088608093F000CD2BCF70D0
:1034F000C093E900FF91EF91DF91CF91BF91AF9120
:103500009F918F917F916F915F914F913F912F91FB
:103510000F900FBE0F901F9018951F93CF93DF93BE
:10352000CDB7DEB7AA970FB6F894DEBF0FBECDBFFA
:10353000E7E0F2E08091F100819322E0EF30F207C2
:10354000C9F70E94FC158091E80083FF2EC180918D
:10355000070290910802492F50E04A30510508F0C7
:1035600024C1FA01EC58FF4F0C94091C803821F05B
:10357000823809F01AC108C08091030290910402B8
:10358000992389F082600FC080910B028F70873081
:1035900008F00BC18093E9008091EB0085FB882740
:1035A00080F91092E9009091E800977F9093E800ED
:1035B0008093F1001092F100D1C0282F2D7F09F0E7
:1035C000F4C0882319F0823061F0EFC080910902C5
:1035D000813009F0EAC0933009F080E08093040262
:1035E0002EC08091090281112AC080910B028F7038
:1035F0002FEF280F263008F0D8C08093E9002091E3
:10360000EB0020FF1CC0933021F48091EB0080621E
:1036100014C09091EB0090619093EB0021E030E0BA
:10362000A90102C0440F551F8A95E2F74093EA00B2
:103630001092EA008091EB0088608093EB0010927A
:10364000E9008091E800877F8093E8000E94AA1833
:10365000ACC08111AAC0109109021F778091E300CC
:103660008078812B8093E3008091E800877F8093AE
:10367000E8000E94AA188091E80080FFFCCF8091AA
:10368000E30080688093E300111102C082E001C072
:1036900083E08093060289C08058823008F085C09C
:1036A0008091090290910A028C3D53E0950779F5CB
:1036B00083E08A838AE289834FB7F894DE01139608
:1036C00020E03EE051E2E32FF0E050935700E49118
:1036D00020FF03C0E295EF703F5FEF708E2F90E008
:1036E000EA3010F0C79601C0C0968D939D932F5F6E
:1036F000243149F74FBF8091E800877F8093E8002D
:103700006AE270E0CE0101960E94B61716C0609181
:103710000B0270910C02AE014F5F5F4F0E94F816D2
:10372000BC01892B09F441C09091E800977F9093E8
:10373000E80089819A810E9414188091E8008B77B3
:103740008093E80032C0803881F58091E800877F5F
:103750008093E800809102028093F1008091E8005C
:103760008E7772CF811121C08091090290910A0257
:1037700099270297D4F48091E800877F8093E8002E
:1037800080910902809302020E94AA18809102028D
:10379000811106C08091E30087FD02C081E001C075
:1037A00084E0809306020E94F7158091E80083FF71
:1037B0000AC08091E800877F8093E8008091EB0049
:1037C00080628093EB00AA960FB6F894DEBF0FBE1E
:1037D000CDBFDF91CF911F9108950895CF93809130
:1037E00006028823A1F0C091E900CF709091EC000F
:1037F000892F817090FD80E8C82B1092E90080919C
:10380000E80083FD0E948D1ACF70C093E900CF912C
:103810000895EE0FFF1F0590F491E02D0994F9999A
:10382000FECF92BD81BDF89A992780B50895A8E191
:10383000B0E042E050E00C94431C262FF999FECFF3
:1038400092BD81BDF89A019700B4021639F01FBAF3
:1038500020BD0FB6F894FA9AF99A0FBE0895039610
:10386000272F0E941E1C0E941D1C252F0E941E1C1B
:10387000242F0C941E1C0196272F0E941E1C0C94B2
:103880001D1CDC01CB01FC01F999FECF06C0F2BD85
:10389000E1BDF89A319600B40D9241505040B8F70E
:0638A0000895F894FFCF2B
:1038A600AF01A915AE15AC15E115AD1501C6F43776
:1038B600959392F6F7676636353497969430333299
:0238C60031F5DA
:00000001FF
